:020000040800F2
:10000000A80B0020C9010008790A0008110A00089D
:10001000750A00088507000831210008000000006B
:10002000000000000000000000000000E5130008D0
:100030008907000800000000CD120008C116000862
:10004000E3010008E3010008E3010008E301000800
:10005000E3010008E3010008E3010008E3010008F0
:10006000E3010008E3010008E3010008E3010008E0
:10007000E3010008E3010008E3010008E3010008D0
:10008000E3010008E3010008E3010008E3010008C0
:10009000E3010008E3010008E3010008E3010008B0
:1000A000E3010008E3010008E3010008E3010008A0
:1000B00025170008E3010008E3010008E301000838
:1000C000E3010008E3010008E3010008E301000880
:1000D000E3010008A51B00088D1C0008C91D0008CD
:1000E000E3010008E3010008E301000800F002F862
:1000F00000F041F80AA090E8000C82448344AAF181
:100100000107DA4501D100F036F8AFF2090EBAE87E
:100110000F0013F0010F18BFFB1A43F0010318473B
:10012000288A0000488A0000103A24BF78C878C1A5
:10013000FAD8520724BF30C830C144BF04680C60ED
:10014000704700000023002400250026103A28BF35
:1001500078C1FBD8520728BF30C148BF0B60704739
:10016000642900F06780002070471FB500F077F920
:100170001FBD10B510BD00F0CFFA1146FFF7F5FF17
:1001800002F09CF800F0EDFA03B4FFF7F2FF03BCB5
:1001900000F0F2FA0B49D1F800C04A685CF8043B61
:1001A0001068184442F8040B8C4528BFA1F1DC0C00
:1001B0008A4228BFA1F1DC02C1F800C04A6020F0E9
:1001C000004070473C050020094880470948004727
:1001D000FEE7FEE7FEE7FEE7FEE7FEE7FEE7FEE7F7
:1001E000FEE7FEE704480549054A064B7047000054
:1001F000C5160008ED000008A8050020A80B002087
:10020000A8070020A80700200FB41CB5084B06AAB9
:100210007B4469460090059800F02FFA04460020C0
:10022000694600F03DFA20461CBC5DF814FB000056
:100230008D0400002DE9F041064600241068752960
:10024000314616A510D0AFF30080002802DA4042F4
:1002500013A507E031688A0701D512A502E0490716
:1002600004D511A5012401E0AFF3008000210A228A
:1002700006F1240709E0B0FBF2FCB0FBF2F302FB4D
:100280001C00303078541846491C0028F3D123460E
:100290002A463046BDE8F04100F091B90000000068
:1002A0002D0000002B000000200000002DE9F05F71
:1002B000894604464FF0000ADFF874B1FB44C0F8E9
:1002C00020A02046E1688847002874D0252806D061
:1002D000D4E901219047206A401C2062F1E7002602
:1002E0005F462046E16888472028054607DB312D18
:1002F00005D2781910F8200C08B10643F1E7B007D1
:1003000001D526F00406C4F81CA00027C4F818A0E4
:100310002A2D09D0284601F00DFF38B304EB8708D9
:10032000303DC8F8185019E059F8041B204604EB7A
:1003300087029161E1688847012F054618D1E0697D
:10034000002820DA26F020061DE0D8F8180000EB7F
:10035000800005EB40003038C8F818002046E168FE
:100360008847054601F0E6FE0028EED1012F0AD0AD
:100370002E2D08D12046E16888477F1C0546022FB4
:1003800046F02006C4DBA069002803DA404246F0AC
:100390000106A061F00701D026F010066C2D0BD0ED
:1003A000682D09D04C2D39D06A2D35D0742D35D01B
:1003B0007A2D33D016E038E0E1682F462046884792
:1003C000B842054609D16C2F26D04FF48060E16811
:1003D000064320468847054604E06C2F1AD04FF4A8
:1003E000807006430DB3A5F14100192802D82035CD
:1003F00046F400664A462946204626604E46FFF7E8
:10040000AFFE80B101280BD0F61D26F0070000F1E9
:10041000080956E74020E4E78020D8E70020D6E727
:1004200006F104094DE7284652E7206ABDE8F09F2F
:10043000768800000B4910B5A1F17C020A4CC2E994
:100440003712372106E000EB104342F82130074B0A
:1004500000FB03400B1EA1F10101F4DC10BD0120E3
:10046000E8E70000DC040020E119D666CD0D0100AC
:1004700010B5431C02E010F8011B71B18107FAD1DD
:100480004FF0013202C88C1A8C4314EAC211F9D021
:10049000C01A0A0603D0C01E10BDC01A10BD0A043F
:1004A00001D0801E10BD0902FCD0401E10BD032AE1
:1004B00040F2308010F0030C00F0158011F8013B81
:1004C000BCF1020F624498BF11F801CB00F8013B68
:1004D00038BF11F8013BA2F1040298BF00F801CB2C
:1004E00038BF00F8013B11F0030300F0DE80083A4A
:1004F000C0F0088051F8043B083A51F804CBA0E85A
:100500000810F5E7121D5CBF51F8043B40F8043BAE
:10051000AFF30080D20724BF11F8013B11F801CBE3
:1005200048BF11F8012B24BF00F8013B00F801CBB4
:1005300048BF00F8012B70474FF0013C50F8042BE6
:1005400051F8043B9A4221D1A2EB0C03934313EAE6
:10055000CC1317D150F8042B51F8043B9A4215D113
:10056000A2EB0C03934313EACC130BD150F8042BEA
:1005700051F8043B9A4209D1A2EB0C03934313EACE
:10058000CC13DBD04FF00000704700BFD01A01BA87
:10059000B1FA81F101F0180122FA01F0CB40C1F16A
:1005A0002001DBB2C0B2C01A2CFA01F3D11A914378
:1005B00011EAC311E6D170477047704770472DE9C3
:1005C000F0470D4699469246044600F1240801681A
:1005D000880604D5E06921F01001216000E00120C7
:1005E000A84201DD471B00E00027A1697A1902EB50
:1005F0000900081AA0612078C00602D42046AFF393
:100600000080002608E0D4E901211AF8060090478E
:10061000206A401C761C20624E45F4DB2078C00620
:100620000AD52046AFF3008006E0D4E9012130204E
:100630009047206A401C2062381EA7F10107F4DCB5
:1006400007E0D4E9012118F805009047206A401C12
:100650002062281EA5F10105F3DC2046AFF30080DF
:100660002078000602D50220BDE8F0870120FBE7D4
:1006700001694A1C02610878704700B58FB0CDE966
:1006800001310021059105497944CDE90310114656
:100690006846FFF70BFE0FB000BD0000E5FFFFFF4F
:1006A0000A6802F8010B0A60704710B5203AC0F0E2
:1006B0000B80B1E81850203AA0E81850B1E8185063
:1006C000A0E81850BFF4F5AF5FEA027C24BFB1E8A0
:1006D0001850A0E8185044BF18C918C0BDE8104011
:1006E0005FEA827C24BF51F8043B40F8043B08BF1A
:1006F0007047D20728BF31F8023B48BF11F8012BE1
:1007000028BF20F8023B48BF00F8012B70470000CB
:1007100000487047440500207546FFF7F9FFAE46D4
:1007200005006946534620F00700854618B020B5FD
:10073000FFF758FDBDE820404FF000064FF00007DE
:100740004FF000084FF0000B21F00701AC46ACE879
:10075000C009ACE8C009ACE8C009ACE8C0098D46E6
:10076000704710B50446AFF300802046BDE8104046
:10077000FFF70ABD7047000001491820ABBEFEE735
:100780002600020000BFFEE7704700B5034603E005
:100790004FF47A7000F011F8181EA3F10103F7D19D
:1007A00000BD10B5044603E04FF47A70FFF7EDFF8B
:1007B000201EA4F10104F7D110BD00EBC001C90057
:1007C0004FF0E0225161002191610521116100BFCC
:1007D0004FF0E021096901F480310029F8D00421AB
:1007E0004FF0E0221161704710B500F0EDF81F499D
:1007F000087000F0F3F81E49087000F0F7F81D4982
:10080000087000F0FDF81C490870184800780128AD
:1008100004D102F0A5FF00201449087014480078A4
:10082000022804D103F08CF8002011490870114807
:10083000007801280AD103F0B7F903F081F803F03A
:10084000B3F903F07DF800200A4908700A480078DF
:1008500001280AD103F048F903F072F803F044F9D3
:1008600003F06EF800200449087010BD3A00002023
:100870003B0000203C0000203D0000202DE9F0411D
:10088000024600250026002000230024002791F8BE
:1008900003C00CF00F0591F803C00CF0100CBCF174
:1008A000000F03D091F802C04CEA050591F800C092
:1008B000BCF1000F31D0146800202BE04FF0010C88
:1008C0000CFA00F3B1F800C00CEA03069E4220D1F6
:1008D00083004FF00F0C0CFA03F7BC4305FA03FC3E
:1008E0004CEA040491F803C0BCF1280F06D14FF084
:1008F000010C0CFA00FCC2F814C00AE091F803C025
:10090000BCF1480F05D14FF0010C0CFA00FCC2F805
:1009100010C0401C0828D1D31460B1F800C0BCF14D
:10092000FF0F34DD546800202EE000F1080C4FF07A
:10093000010808FA0CF3B1F800C00CEA03069E4265
:1009400021D183004FF00F0C0CFA03F7BC4305FADA
:1009500003FC4CEA040491F803C0BCF1280F05D154
:1009600000F1080C08FA0CF8C2F8148091F803C0E2
:10097000BCF1480F07D100F1080C4FF0010808FA4C
:100980000CF8C2F81080401C0828CED35460BDE893
:10099000F0810246002093680B400BB1012000E07B
:1009A0000020704702460020D3680B400BB10120A5
:1009B00000E00020704741617047016170470AB153
:1009C000016100E04161704710B54FF400610248D9
:1009D000FFF7DFFF10BD00000008014010B5102137
:1009E0000148FFF7D6FF10BD0008014010B54FF4D5
:1009F00080510248FFF7CDFF10BD00000008014004
:100A000010B520210148FFF7C4FF10BD00080140C8
:100A100000BFFEE710B54FF400510848FFF7C2FFD2
:100A200028B94FF400510548FFF7C7FF04E04FF421
:100A300000510248FFF7BFFF10BD00000010014049
:100A400008B50121102000F053FC10208DF80300A0
:100A50004002ADF8000003208DF80200694604480A
:100A6000FFF70CFF4FF400510148FFF7A4FF08BD4A
:100A70000010014000BFFEE77047000070B5002184
:100A800000230F22C47804B3154C246804F4E064F6
:100A9000C4F5E064210AC1F10403CA40447804FAB1
:100AA00003F184781440214309010E4C0678A155C6
:100AB000047804F01F050124AC4005786D11AD00E9
:100AC00005F1E025C5F8004109E0047804F01F05B0
:100AD0000124AC40044D0678761145F8264070BDDF
:100AE0000CED00E000E400E080E100E00249014399
:100AF000024A1160704700000000FA050CED00E0AA
:100B000000200CE0002106E00022064B03EBC0139E
:100B10005A544A1CD1B28029F6DB421CD0B20828B4
:100B2000F0DB7047600000202DE9F04304460D46DD
:100B300016461F467F2C01DDBDE8F0833F2D00DD0A
:100B4000FAE7A119802902DDC4F18001CEB2E919CA
:100B5000402902DDC5F14001CFB2284630E02346EE
:100B600029E04FEAE07C00EB5C7C4FEAEC0CDFF81C
:100B70005C8008EBCC1C1CF803C002464FEAE0780E
:100B800000EB58784FEAE808A0EBC8094FF00108DD
:100B900008FA09F82CEA080C01464FEAE07800EB65
:100BA00058784FEAE808DFF8249009EBC81808F8ED
:100BB00003C0591CCBB2A1199942D2DC411CC8B266
:100BC000E9198142CBDC00BFB6E7000060000020DD
:100BD00038B5002406E0002500E06D1CB5F57A7FED
:100BE000FBD3641CB4F57A7FF5D30121082000F013
:100BF0007FFB14208DF8030003208DF802004FF4D2
:100C00008070ADF8000069460848FFF737FE4FF4E2
:100C10000070ADF8000069460448FFF72FFE012080
:100C200000F030FA012000F039FA38BD000C014024
:100C300070B50546002411E080212141294009B109
:100C4000012100E00021084600F028FA012000F010
:100C500019FA002000F016FA601CC4B2082CEBDB75
:100C6000012000F00FFA002000F00CFA70BD10B562
:100C7000012000F013FA012000F004FA002000F037
:100C80000DFA002000F0FEF910BD10B5002000F0B4
:100C900005FA012000F0F6F9012000F0FFF910BD7F
:100CA00010B5FFF795FFAE2000F004FAD52000F054
:100CB00001FA802000F0FEF9A82000F0FBF93F20A7
:100CC00000F0F8F9D32000F0F5F9002000F0F2F977
:100CD000402000F0EFF9A02000F0ECF9C02000F077
:100CE000E9F9DA2000F0E6F9122000F0E3F98120BA
:100CF00000F0E0F9CF2000F0DDF9D92000F0DAF9BA
:100D0000F12000F0D7F9DB2000F0D4F9302000F01A
:100D1000D1F9A42000F0CEF9A62000F0CBF98D2067
:100D200000F0C8F9142000F0C5F9AF2000F0C2F9B6
:100D3000FFF7E6FE00F054F910BD10B502460120A1
:100D400000E050430B1EA1F10101FAD110BD70B5B6
:100D500005460C46A01CC4B245F0B00000F0AAF94C
:100D6000102141EA141000F0A5F904F00F0000F082
:100D7000A1F970BDF8B506460F4614461D46082D6C
:100D80000CD1A4F120000E4901EB00101023082221
:100D900039460090304600F065F80FE0062D0DD181
:100DA000A4F1200000EB4000064901EB40000823BD
:100DB000062239460090304600F054F8F8BD000095
:100DC000524C0008425200082DE9FC4780468946F3
:100DD000164600270020019000253AE0705D01A929
:100DE000C855781CC7B2022F31DB002700240CE065
:100DF000C4EBC40101EB8101184A881801A9FFF76F
:100E00009BFB00B90CE0601CC4B2C4EBC40101EB55
:100E10008101124A881812A1FFF78EFB0028E7D142
:100E200000BFC4EBC40000EB80000C490844C01CA8
:100E300005F1010A0AEBDA714910491E08EB0111AC
:100E40000090C8B210231A46494600F00BF8681CFF
:100E5000C5B2705D0028C1D1BDE8FC877C54000894
:100E6000000000002DE9F04707460C4690469946E1
:100E7000DDF820A07F2F01DDBDE8F0873F2C00DDED
:100E8000FAE74B46424621463846FFF74DFE00251D
:100E900070E0002669E0B8197F2800DD67E0E117FF
:100EA00004EB517105EBE101072900DDE4E7204681
:100EB000E21704EB527205EBE202354B03EBC21270
:100EC000BB19D25C2146E31704EB5373DB10A4EB90
:100ED000C30305FB086C1AF80CC00CFA03FC42EAC9
:100EE0000C02E31704EB537305EBE303DFF8A0C038
:100EF0000CEBC31307EB060C03F80C20E11704EB13
:100F0000517105EBE101491C072900DD2BE020466A
:100F1000E21704EB527205EBE202521C1C4B03EB8E
:100F2000C212BB19D25C2146E31704EB5373DB10EA
:100F3000A4EBC303C3F1080305FB086C1AF80CC04B
:100F40004CFA03FC42EA0C02E31704EB537305EB83
:100F5000E3035B1CDFF838C00CEBC31307EB060C94
:100F600003F80C2000BF701CC6B2464593DB00BFDF
:100F7000681CC5B2A9F10100C11700EB5171012233
:100F800002EBE101A94284DC00F02AF800BF73E71C
:100F9000600000202DE9F0470646894617461D46A9
:100FA000DDF82080002417E0281B411E0A20FFF7EF
:100FB000C4FEB7FBF0F00A21B0FBF1F201FB120016
:100FC00000F1300A04FB0861C8B243465246494664
:100FD000FFF7D0FE601CC4B2AC42E5DBBDE8F08791
:100FE00010B500240BE000212046FFF7B0FE0549B4
:100FF00001EBC410802100F06DF8601CC4B2082C15
:10100000F1DB10BD600000202DE9F04105460C46E3
:10101000174698467F2D01DDBDE8F0813F2C00DDAD
:10102000FAE7E819802802DDC5F18000C7B204EBB9
:101030000800402803DDC4F1400000F0FF0820460E
:10104000E11704EB5171C1F3C7060CE029463046A5
:10105000FFF77DFE0A4901EBC6114819394600F039
:1010600039F8701CC6B204EB0801481EC11700EB2A
:101070005171012202EBE101B142E7DC00BFCBE795
:101080006000002010B5044622464FF480710248EB
:10109000FFF795FC10BD0000000C014010B50446A0
:1010A00022464FF400710248FFF789FC10BD000092
:1010B000000C014010B50446FFF7D9FD7820FFF77A
:1010C000B7FD0020FFF7B4FD2046FFF7B1FDFFF7A5
:1010D000DCFD10BD70B505460E46FFF7C8FD782053
:1010E000FFF7A6FD4020FFF7A3FD002404E0285DE4
:1010F000FFF79EFD601CC4B2B442F8DBFFF7C5FDEC
:1011000070BD000008B511A200210846FFF75CFE83
:1011100011480068642808D10820032364220021B4
:1011200000904020FFF736FF08E0082002230090DF
:101130000948002102684020FFF72CFF102380227D
:1011400000210846FFF760FF08BD0000BFAAD0C419
:10115000D6B5A3AC000000004C00002008B511A2D9
:1011600000210846FFF730FE11480068642808D1C6
:10117000082003236422002100904020FFF70AFF8B
:1011800008E008200223009009480021026840205E
:10119000FFF700FF1023802200210846FFF734FFED
:1011A00008BD0000CCE5C1A6D6B5A3AC0000000088
:1011B0005000002000B589B00121042000F098F80B
:1011C0000121082000F094F80121022000F080F8AD
:1011D00018208DF82300C020ADF8200003208DF8E2
:1011E000220008A92248FFF749FB0320ADF82000A0
:1011F00008A92048FFF742FB1F4800F0E8FA00204A
:10120000ADF81A00ADF8160044F61F60ADF81800EE
:101210004720ADF8140000208DF81C0005A91648E1
:1012200000F01CFC01A800F005FC6020ADF80400F3
:101230000020ADF80C000120ADF806000020ADF84C
:101240000A0001A90C4800F0C9FA01A90A4800F0F7
:1012500011FB01A9084800F05FFB01A9064800F056
:10126000ABFB0121044800F07FFA09B000BD00008B
:1012700000080140000C01400004004010B5044685
:101280002146024800F0E0FB10BD000000040040D1
:1012900010B504462146024800F0D8FB10BD0000FE
:1012A0000004004010B504462146024800F0D0FB7F
:1012B00010BD00000004004010B50446214602485D
:1012C00000F0C8FB10BD00000004004070470000A3
:1012D00029B1064AD2690243044BDA6104E0034AA9
:1012E000D2698243014BDA6170470000001002406E
:1012F00029B1064A92690243044B9A6104E0034A09
:1013000092698243014B9A617047000000100240CD
:1013100030B500210022002400232D4D6D6805F01A
:101320000C0121B1042905D0082923D105E0294D5C
:10133000056022E0274D05601FE0254D6D6805F42E
:101340007012234D6D6805F48034022505EB92423E
:101350001CB9214D554305600BE01D4D6D6805F42A
:1013600000351DB11C4D5543056002E0194D554334
:10137000056002E0174D056000BF00BF144D6D68A9
:1013800005F0F0010909154D6B5C0568DD4045600D
:101390000F4D6D6805F4E061090A104D6B5C4568FE
:1013A000DD4085600A4D6D6805F46051C90A0B4D3A
:1013B0006B5C4568DD40C560054D6D6805F44041D6
:1013C000890B074D6B5CC568B5FBF3F5056130BD56
:1013D0000010024000127A0000093D0000000020C9
:1013E0001000002070472DE9F0418EB080460E4677
:1013F000002700243046FFF73BF8C5B2FD208DF8EA
:10140000040000208DF80500E81CC0B28DF806002D
:1014100001208DF8070040EA0810C0B28DF80800DE
:1014200000BF03E001A8005D4740641C052CF9D310
:10143000002402E0305D4740641CAC42FAD32A46E7
:1014400031460DF10900FFF732F8681D01A90F546C
:10145000A81DC1B201A800F08DFC0EB0BDE8F0815E
:1014600010B5064800F08CF9A0F5FA70B421484395
:101470004FF4FA6190FBF1F0C0B210BD00040040DF
:1014800010B5064800F07FF9A0F5FA70B421484382
:101490004FF4FA6190FBF1F0C0B210BD00040040BF
:1014A00010B5064800F072F9A0F5FA70B42148436F
:1014B0004FF4FA6190FBF1F0C0B210BD000400409F
:1014C00010B5064800F065F9A0F5FA70B42148435C
:1014D0004FF4FA6190FBF1F0C0B210BD000400407F
:1014E00010B5FFF767FE10BD2DE9F04104460A492B
:1014F000204603F05FF98046084903F069FA074681
:10150000074903F0F5F8064603F016FA85B22846B7
:10151000FFF7B4FEBDE8F081000034430000FA4458
:101520000000FA432DE9F04104460A49204603F041
:1015300041F98046084903F04BFA0746074903F092
:10154000D7F8064603F0F8F985B22846FFF7A0FE63
:10155000BDE8F081000034430000FA440000FA4383
:101560002DE9F04104460A49204603F023F980465C
:10157000084903F02DFA0746074903F0B9F8064673
:1015800003F0DAF985B22846FFF78CFEBDE8F0815A
:10159000000034430000FA440000FA432DE9F04112
:1015A00004460A49204603F005F98046084903F03D
:1015B0000FFA0746074903F09BF8064603F0BCF90B
:1015C00085B22846FFF778FEBDE8F081000034437D
:1015D0000000FA440000FA4310B500F001F810BD15
:1015E0000CB50020019000903348006840F4803032
:1015F0003149086000BF3048006800F400300090B6
:101600000198401C0190009818B90198B0F5A06F9E
:10161000F1D12948006800F4003010B10120009099
:1016200001E0002000900098012843D12348006881
:1016300040F01000214908600846006820F00300CF
:1016400008600846006840F0020008601A484068D8
:10165000194948600846406848600846406840F4B8
:10166000806048600846406820F47C104860084666
:10167000406840F4E81048600846006840F0807018
:10168000086000BF0C48006800F000700028F9D026
:101690000948406820F00300074948600846406850
:1016A00040F00200486000BF0348406800F00C00B2
:1016B0000828F9D10CBD00000010024000200240B3
:1016C0007047000010B51348006840F00100114950
:1016D000086008464068104908400E4948600846BE
:1016E00000680E4908400B4908600846006820F46D
:1016F000802008600846406820F4FE0048604FF4EF
:101700001F008860FFF768FF4FF000600449086021
:1017100010BD0000001002400000FFF8FFFFF6FEC1
:1017200008ED00E010B50121880700F036F8012827
:101730000ED102210748FFF72CF9012804D10648F1
:101740000088401C044908800121880700F009F83E
:1017500010BD0000000801402C000020CA43028296
:101760007047CA430282704721B1028842F00102E9
:10177000028004E002884FF6FE731A400280704730
:101780000146888E70470146088F70470146888F52
:1017900070470146B1F84000704730B5024600205E
:1017A00000230024158A05EA0103958905EA01044E
:1017B00013B10CB1012000E0002030BD1AB18389C3
:1017C0000B43838102E083898B43838170470189C6
:1017D0004FF6F872114001817047000070B5002487
:1017E00000220023058C4FF6FE7635400584028CDE
:1017F0008388048B4FF68F752C40B51E2C400D88C6
:101800002C43751E2A400D892A434D882A43144DC6
:10181000A8420BD0134DA84208D0134DA84205D0C2
:10182000124DA84202D0124DA84213D14FF6F775BF
:101830002A404D892A434FF6FB752A408D882A435A
:101840004FF6FF652B404FF6FF552B408D892B43FC
:10185000CD892B4383800483CD888586028470BD27
:10186000002C014000340140004001400044014090
:101870000048014070B5002400220023058C4FF67B
:10188000EF7635400584028C8388048B48F6FF751B
:101890002C404FF6FF452C400D884FF6FF7606EAA8
:1018A00005252C434FF6DF752A400D8906EA0515FC
:1018B0002A434D8806EA05152A43154DA84202D051
:1018C000144DA8421DD14FF67F752A404D894FF621
:1018D000FF7606EA05152A434FF6BF752A408D8824
:1018E00006EA05152A434FF6FF352B404FF2FF75E8
:1018F0002B408D8906EA85052B43CD8906EA8505AF
:101900002B4383800483CD880587028470BD00004B
:10191000002C01400034014070B500240022002357
:10192000058C4FF6FF6635400584028C8388848BD6
:101930004FF68F752C404FF6FC752C400D882C43CC
:101940004FF6FF552A400D894FF6FF7606EA05252A
:101950002A434D8806EA05252A43154DA84202D0A0
:10196000144DA8421DD14FF2FF752A404D894FF604
:10197000FF7606EA05252A434FF6FF352A408D8873
:1019800006EA05252A434EF6FF752B404DF6FF75F6
:101990002B408D8906EA05152B43CD8906EA0515EE
:1019A0002B4383808483CD888587028470BD0000AB
:1019B000002C01400034014070B5002200230024B7
:1019C000058C4EF6FF7635400584038C8488828B27
:1019D00048F6FF752A404FF6FF452A400D884FF61E
:1019E000FF7606EA05252A434DF6FF752B400D8943
:1019F00006EA05352B434D8806EA05352B430B4D8A
:101A0000A84202D00A4DA84208D14BF6FF752C40DF
:101A10008D894FF6FF7606EA85152C4384808283F4
:101A2000CD88A0F84050038470BD0000002C014018
:101A3000003401400021018041808180C18001810A
:101A400041818181C18170478186704701877047DC
:101A500081877047A0F8401070470000002202887C
:101A60001D4B98420ED01D4B98420BD0B0F1804FC9
:101A700008D01B4B984205D01A4B984202D01A4B03
:101A8000984204D14FF68F731A404B881A43174B74
:101A9000984207D0164B984204D04FF6FF431A40A5
:101AA000CB881A4302808B8883850B8803850A4B79
:101AB00098420BD0094B984208D00E4B984205D063
:101AC0000D4B984202D00D4B984201D10B7A038600
:101AD0000123838270470000002C01400034014044
:101AE0000004004000080040000C004000100040CE
:101AF0000014004000400140004401400048014003
:101B00001FB500201C49088001210846FFF7E0FBB3
:101B10000020ADF80A00ADF8060041F61F40ADF810
:101B200008000020ADF804008DF80C0001A94FF06A
:101B30008040FFF793FF01218807FFF70FFE012286
:101B400011469007FFF73AFE4FF4A060FEF7CEFF74
:101B50001C208DF8000001208DF8030002208DF874
:101B6000010001208DF802006846FEF787FF012181
:101B70008807FFF7F9FD1FBD2C0000200148007801
:101B8000704700001400002005480078012804D1A7
:101B9000002003490870012070470020FCE7000086
:101BA0001500002010B540F22551094800F09DF9BC
:101BB00001280CD1064800F053FA064908700120AC
:101BC0000549087040F22551014800F073F910BD35
:101BD00000380140140000201500002000B587B037
:101BE00001218803FFF784FB01210420FFF780FB1C
:101BF00018208DF81B004FF40070ADF8180003207A
:101C00008DF81A0006A91F48FEF738FE48208DF807
:101C10001B004FF48060ADF8180006A91948FEF7C4
:101C20002DFE4FF4E13002900020ADF814000C209E
:101C3000ADF812000020ADF81000ADF80E00ADF8C0
:101C40000C0002A9104800F09FF9012240F2255132
:101C50000D4800F074F94FF4A060FEF747FF25200F
:101C60008DF8040001208DF807008DF805008DF82F
:101C7000060001A8FEF702FF0121034800F029F940
:101C800007B000BD000801400038014010B540F227
:101C90002551094800F029F901280CD1064800F027
:101CA000DFF90649087001200549087040F2255106
:101CB000014800F0FFF810BD00440040160000206D
:101CC0001700002000B587B001210420FFF710FBAA
:101CD00001214804FFF7FCFA03208DF81A001820B0
:101CE0008DF81B000420ADF8180006A91F48FEF768
:101CF000C5FD48208DF81B000820ADF8180006A986
:101D00001A48FEF7BBFD4FF4165002900020ADF8C4
:101D100014000C20ADF812000020ADF81000ADF852
:101D20000E00ADF80C0002A9114800F02DF90122B7
:101D300040F225510E4800F002F94FF4A060FEF782
:101D4000D5FE26208DF8040001208DF807008DF8BF
:101D5000050002208DF8060001A8FEF78FFE012184
:101D6000034800F0B6F807B000BD000000080140CD
:101D70000044004010B500220DE000BF074B1B8857
:101D800003F04003002BF9D010F8013B034C241D55
:101D90002380531CDAB28A42EFDB10BD00440040BE
:101DA00001480078704700001800002005480078BE
:101DB000012804D100200349087001207047002049
:101DC000FCE700001900002010B540F22551094839
:101DD00000F08BF801280CD1064800F041F90649C3
:101DE000087001200549087040F22551014800F0B3
:101DF00061F810BD004800401800002019000020C4
:101E000000B587B001218804FFF762FA012108209C
:101E1000FFF76EFA03208DF81A0018208DF81B00CA
:101E20004FF48060ADF8180006A92048FEF726FDA3
:101E300048208DF81B004FF40060ADF8180006A98B
:101E40001A48FEF71BFD4FF4165002900020ADF823
:101E500014000C20ADF812000020ADF81000ADF811
:101E60000E00ADF80C0002A9114800F08DF8012217
:101E700040F225510E4800F062F84FF4A060FEF7E2
:101E800035FE27208DF8040001208DF807008DF81D
:101E9000050003208DF8060001A8FEF7EFFD0121E3
:101EA000034800F016F807B000BD0000000C014028
:101EB0000048004010B50022002340F66A14A142F9
:101EC00000D100BF0A1201249440A3B2DC43048075
:101ED00010BD21B1828942F40052828104E08289DE
:101EE0004DF6FF731A408281704770B50246002498
:101EF00000230025002040F66A16B14200D100BF41
:101F0000C1F3421501F01F03012606FA03F3012D68
:101F100002D19689334006E0022D02D1168A334061
:101F200001E0968A33400C12012606FA04F4168862
:101F3000344013B10CB1012000E0002070BDF0B5B9
:101F40000346002400260025002040F66A17B94207
:101F500000D100BF1846C1F3421401F01F0601274B
:101F600007FA06F5012C01D10C3004E0022C01D156
:101F7000103000E014301AB107682F43076002E008
:101F80000768AF430760F0BD2DE9F04786B005460E
:101F90000E460024A24600BFA1460027B08900B12A
:101FA00000BF2F462C8A4CF6FF700440F088044393
:101FB0002C82AC894EF6F3100440B0883189084376
:101FC000718908430443AC81AC8A4FF6FF4004405A
:101FD000B0890443AC8201A8FFF79AF91F488742F1
:101FE00002D1DDF810A001E0DDF80CA0A88900F412
:101FF000004040B10AEBCA0000EB0A10316849000A
:10200000B0FBF1F807E00AEBCA0000EB0A103168F8
:102010008900B0FBF1F86420B8FBF0F0040120095E
:10202000642101FB1089A88900F4004040B13220EE
:1020300000EBC900B0FBF1F000F00700044308E03A
:10204000322000EB09106421B0FBF1F000F00F002A
:1020500004432C8106B0BDE8F08700000038014041
:1020600001468888C0F30800704700002DE9F05F42
:1020700000F04CF86420FEF788FB0D48008802F061
:1020800026FA80460B4A0C4B02F034FA0646002230
:102090000A4B02F02FFA044600224FF0804302F070
:1020A00091F8824602F0E6F980B2BDE8F09F0000A8
:1020B0002C0000202D431CEBE2361A3F009AE04032
:1020C00008B501210420FFF713F910208DF8030053
:1020D0000120ADF8000003208DF8020069460A488F
:1020E000FEF7CCFB28208DF803000220ADF800009D
:1020F00003208DF8020069460348FEF7BFFB01216B
:102100000148FEF758FC08BD0008014010B5012148
:102110000648FEF752FC3220FEF74FFB0121034830
:10212000FEF749FCFFF7ECFC10BD00000008014081
:1021300000BFFEE730380A2801D201207047002096
:102140007047000010B5FFF791FF174908800A207B
:10215000FEF71BFB144800880F2807DD01F0F0FB99
:1021600012480068401C114908601CE0FFF77EFF20
:102170000D49088012E000200C49086001F0E2FCE3
:1021800001F0E0FC0A20FEF700FBFFF76FFF0649B5
:102190000880084600880F2800DD03E00248008818
:1021A0000F28E8DB00BF10BD5400002030000020E5
:1021B00070B500203F49086031E03E49096801F1EF
:1021C0005A0002F0D9FB0446FFF78EF93949096835
:1021D000C1F15A0002F0D0FB0446FFF7C1F93549BE
:1021E0000C6804EBD471491001F15A0002F0C4FBF1
:1021F0000546FFF797F92F490C6804EBD471491095
:10220000C1F15A0002F0B8FB0546FFF7C7F90520F7
:10221000FEF7BBFA27480068401C2649086025489D
:1022200000684B28C9DB24490968322201FB02F00F
:10223000FEF7ABFA00201F49086031E01D4909682C
:10224000C1F1A50002F098FB0446FFF74DF91949CA
:10225000096801F10F0002F08FFB0446FFF780F9D7
:1022600014490C6804EBD4714910C1F17F0002F0ED
:1022700083FB0546FFF756F90E490C6804EBD47151
:10228000491001F1350002F077FB0546FFF786F9AA
:102290000520FEF77AFA07480068401C05490860E7
:1022A000044800684B28C9DB03480068FEF76DFA54
:1022B00070BD00001C0000202400002008B5FEF7BF
:1022C000BFFBFFF70DF9FEF7EBFCFFF787FCFFF70D
:1022D000F9FCFFF795FD01F04DFFFFF7F1FE32200D
:1022E000B74908606420B74908600020B6490880F3
:1022F000B6490880FEF704FCB5484023802200213F
:1023000000900846FEF7AEFDB2A10220FFF76BF881
:102310000120FEF746FA51E1AA480068002816DDC0
:10232000FFF72CFCB0490870FFF73AFDAF49087081
:10233000FFF72AFC20B1AC480078AD49087006E0F0
:10234000FFF734FD18B1A9480078A94908709D48E5
:102350000068002804DA00F037FE00209949086080
:102360009848006820BBFFF709FC322801D10124FE
:1023700000E00024FFF714FD322801D1012000E025
:102380000020044314B100F0BDFE11E0FFF7F6FB9E
:10239000702801D1012400E00024FFF701FD70281E
:1023A00001D1012000E0002004430CB100F048FE00
:1023B00084480068642802DD6420824908608048FF
:1023C0000068002804DA00207D49086000F0FCFD68
:1023D0007B480068642802DD6420794908608448ED
:1023E0000078482802D10120784908808048007888
:1023F00068280AD10020754908807E4908707E4906
:1024000008707E4908707E4908707048008808B1DD
:10241000FEF7EAF976480078782802D101206A4967
:10242000088073480078632805D100206649088039
:102430006420744908806448008808B1FFF782FE70
:102440006B480078662802D100F01AF9B6E06848B7
:102450000078622802D100F0D9F8AFE06448007833
:102460006C2802D100F046F9A8E061480078722893
:1024700002D100F079F9A1E05D480078772802D117
:1024800000F060FF9AE05A4800787A2802D100F004
:102490007FFF93E056480078642802D100F02CFFBB
:1024A0008CE053480078352802D100F0D1F985E05E
:1024B0004F480078712806D153480078302802D060
:1024C00000F08CF97AE04A480078732806D14E482B
:1024D0000078732802D000F0F5F96FE044480078E6
:1024E0006A2802D100F048FA68E04148007879286B
:1024F00002D100F06FFC61E03D480078312802D144
:1025000000F0FEFA5AE03A480078702806D13E48BA
:102510000078702802D000F093FD4FE03448007836
:10252000322806D138480078322802D000F0EAFD7F
:1025300044E02F4800786E2802D100F045FD3DE0D0
:102540002B480078422802D100F07EFF36E0284870
:102550000078592802D100F07DFC2FE02448007853
:10256000582802D101F04EF828E021480078572879
:1025700002D100F033FF21E01D4800786F2802D11E
:1025800000F0EEFA1AE01A480078552802D101F05E
:1025900011F813E0164800784B2802D100F018FA21
:1025A0000CE013480078542802D100F00FFE05E03B
:1025B0000F4800785A2801D100F08AFBACE60000F1
:1025C0004C00002050000020460000204800002061
:1025D000865600085B7631325D5B6D355D5B743528
:1025E0005DCDFACDFA000000360000203700002053
:1025F000380000203A0000203B0000203C00002072
:102600003D000020540000203900002008B5164885
:1026100040238022002100900846FEF723FC01F0B1
:102620009FF8FEF7F7F911480078622805D11048A5
:102630000088401C0E49088002E000200C490880F8
:102640000B480088052804DB0A480068C01E0949B9
:102650000860094800780549087008480068401F6C
:102660000649086008BD0000865A000839000020AD
:10267000400000204C0000203800002050000020C6
:1026800008B5164840238022002100900846FEF736
:10269000E9FB01F055F9FEF7BDF91148007866280D
:1026A00005D110480088401C0E49088002E0002037
:1026B0000C4908800B480088052804DB0A4800689C
:1026C000C01E094908600948007805490870084893
:1026D0000068401F0649086008BD0000865A0008CF
:1026E000390000203E0000204C000020380000206F
:1026F0005000002008B51648402380220021009099
:102700000846FEF7AFFB01F0BDF9FEF783F911486B
:1027100000786C2805D110480088401C0E490880BC
:1027200002E000200C4908800B480088052804DBE3
:102730000A480068C01E0949086009480078054930
:10274000087008480068401F0649086008BD00007E
:102750008662000839000020420000204C00002062
:10276000380000205000002008B516484023802281
:10277000002100900846FEF775FB01F0E3F9FEF733
:1027800049F9114800786C2805D110480088401C90
:102790000E49088002E000200C4908800B480088A0
:1027A000052804DB0A480068C01E0949086009487A
:1027B00000780549087008480068401F064908600D
:1027C00008BD0000865E000839000020440000209B
:1027D0004C000020380000205000002008B51148AF
:1027E0000078712803D110A10020FEF7FCFD1448E9
:1027F00040238022002100900846FEF733FB114859
:10280000007801F02DFBFEF705F90F4800780D491F
:10281000087030200C4908700C480068401E0B49B5
:10282000086008BD370000205B7631325D5B6D3596
:102830005D5B74355DBAC3C0DBBAC3C0DB000000AA
:102840008656000839000020380000205000002083
:1028500008B5114840238022002100900846FEF769
:1028600001FB00F0D7FFFEF7D5F80C4800780C49C3
:1028700008700C480068401E0A4908600A48006851
:10288000401F0949086009A10020FEF7ACFD0120A6
:10289000FDF787FF08BD00008656000838000020BD
:1028A00039000020500000204C0000205B763132BF
:1028B0005D5B6D355D5B74355DC1A2D5FDCDF4CD3D
:1028C000F4CDF40008B51D480078732803D11CA18D
:1028D0000020FEF788FD214840238022002100903F
:1028E0000846FEF7BFFA1E48007801F0B9FA1D4805
:1028F00040238022002100900846FEF7B3FA01F041
:102900007BFB194840238022002100900846FEF7F7
:10291000A9FAFEF77FF815480078114908703020B1
:102920001249087012480068C01C1149086011481B
:102930000068401D0F49086008BD000037000020F6
:102940005B7631325D5B6D355D5B74355DCED2B5E6
:10295000C4C1B3BADCB8C9BEBB00000086560008CB
:1029600039000020865A00088682000838000020BE
:10297000500000204C00002008B510484023802261
:10298000002100900846FEF76DFA01F021FB01F0EE
:10299000C5FBFEF73FF80A4800780A490870302066
:1029A0000749087008480068401F07490860074841
:1029B0000068801C0549086008BD000086560008B4
:1029C0003800002039000020500000204C0000207A
:1029D00038B52E4830238022082100900020FEF7D1
:1029E00041FAFEF78FFB2A482AA102683148FDF719
:1029F0000BFC30490220FEF7F6FC0420FDF7D1FE67
:102A0000234800683C2815DB2B483023802208210E
:102A100000900020FEF726FAFEF774FB27A10220A3
:102A2000FEF7E1FC01F0EEF801F0ECF80420FDF710
:102A3000B8FE1FE0164800680A281BDC2748302330
:102A40008022082100900020FEF70CFAFEF75AFBC6
:102A500023A10220FEF7C7FCFDF79CFB044600EB18
:102A6000D4704010A4EB400010B101F069F901E00E
:102A700001F0AEF90320FDF794FE1F4800781F49CE
:102A8000087030201C49087038BD000086560008C8
:102A90004C0000205B7631325D5B6D355D5B7435DB
:102AA0005DB5B1C7B0B5C4BFAAD0C4D6B5CEAA254E
:102AB0006400000056000020867600085B76313204
:102AC0005D5B6D355D5B74355DBDF1CCECB5C4D03F
:102AD000C4C7E9BBB9BFC9D2D4000000865A0008F8
:102AE0005B7631325D5B6D355D5B74355DCFEBB32D
:102AF000F6C8A5CDE600000038000020390000200F
:102B000008B5124840238022002100900846FEF7B5
:102B1000A9F90F48007801F0A3F90E48402380225C
:102B2000002100900846FEF79DF900F063FFFDF7D5
:102B300071FF09480078064908703020064908707E
:102B400006480068401F0549086008BD8656000811
:102B500039000020867A000838000020500000204C
:102B600038B54C48007835280FD04A48007871288D
:102B70000BD0494840238022002100900846FEF7F0
:102B800071F94448007801F06BF9444840238022F1
:102B9000002100900846FEF765F9002418E0C4F112
:102BA0005A0001F0E9FE0546FEF79EFC04F15A00CA
:102BB00001F0E2FE0546FEF7B5FCC4F15A0001F053
:102BC000DBFE0546FEF7EAFC0720FDF7DEFD641C90
:102BD000142CE4DB002411E004F16E0001F0CCFEC3
:102BE0000546FEF79FFCC4F1460001F0C5FE054610
:102BF000FEF7D4FC0720FDF7C8FD641C282CEBDB96
:102C000000240AE004F1460001F0B6FE0546FEF796
:102C10006BFC0420FDF7B9FD641C3C2CF2DB20A109
:102C20000020FEF7E0FB2448FEF75EFC4FF4C8707E
:102C3000FDF7ABFD2148FEF757FC4FF4C870FDF7D8
:102C4000A4FD1D48FEF750FC4FF4C870FDF79DFD34
:102C50001A48FEF749FC4FF4C870FDF796FD184876
:102C6000FEF742FC4FF4FA70FDF78FFDFDF7D2FE40
:102C7000144800780749087030201249087012483B
:102C80000068801E1049086010480068801C0F49C9
:102C9000086038BD3900002086560008868200088A
:102CA0005B7631325D5B6D355D5B74355DC4E3BA77
:102CB000C3C4E3BAC3000000000034430000024371
:102CC00000008C4238000020500000204C00002002
:102CD00008B5FDF715FF29A200210846FEF774F894
:102CE00029480068642808D10820032364220021B1
:102CF00000904020FEF74EF908E0082002230090E3
:102D00002148002102684020FEF744F91FA210214B
:102D10000020FEF759F820480068642808D10820F0
:102D200003236422102100904020FEF733F908E0CD
:102D30000820022300901848102102684020FEF766
:102D400029F92023802200210846FEF75DF9124868
:102D500003680D4811A102681B48FDF755FA1A498E
:102D60000220FEF740FB0A20FDF71BFD1748007804
:102D70001749087030201549087008BDBFAAD0C493
:102D8000D6B5A3AC000000004C000020CCE5C1A6E5
:102D9000D6B5A3AC00000000500000205B763132B5
:102DA0005D5B6D355D5B74355DB5B1C7B0B5C4BFF6
:102DB000AAD0C4D6B5CEAA2564A3ACCCE5C1A6D60C
:102DC000B5CEAA256400000056000020380000207F
:102DD0003900002008B519484023802200210090C6
:102DE0000846FEF73FF81648007801F039F8154814
:102DF00040238022002100900846FEF733F8FFF7B9
:102E0000D7F90E4840238022002100900846FEF7A3
:102E100029F8FDF7FFFD0C480078094908703020BB
:102E20000949087009480068401D084908600848B9
:102E30000068401C0649086008BD0000865600086E
:102E4000390000208676000838000020500000205D
:102E50004C00002008B53648402380220021009015
:102E60000846FDF7FFFF3348FEF73EFB32A1022084
:102E7000FEF7B9FA0220FDF794FC4FF4FA70FDF763
:102E800084FC344840238022002100900846FDF74E
:102E9000E9FF3148FEF764FB30A10220FEF7A3FAF8
:102EA0000220FDF77EFC4FF4FA70FDF76EFC2A4815
:102EB000FEF738FB1F48FEF771FB2E4840238022A7
:102EC000002100900846FDF7CDFF2BA10220FEF760
:102ED0008AFA0220FDF765FC4FF42F70FDF755FCD0
:102EE0002D4840238022002100900846FDF7BAFFBC
:102EF0002AA10220FEF777FA00F084FE00F082FE9D
:102F000000F080FE0220FDF74CFC2B4800782B4996
:102F1000087030202849087029480068801E284918
:102F2000086028480068801C2649086008BD000029
:102F300086660008000007435B7631325D5B6D35C5
:102F40005D5B74355DB4F3BCD2B6BCC9A2C1CBB075
:102F5000C9000000867A0008000034425B763132F6
:102F60005D5B6D355D5B74355DCBFDBCD2C0CFC79D
:102F7000EEC1CB00868200085B7631325D5B6D3539
:102F80005D5B74355DCED2B8D5B8D5CBBDD0C5CBE1
:102F9000FDB1EDB0D7000000867E00085B763132CF
:102FA0005D5B6D355D5B74355D20CBFDCBB5C3C519
:102FB000B6BCC3BBD3D000003800002039000020CD
:102FC000500000204C00002008B51148402380220A
:102FD000002100900846FDF745FF00F0F9FE0DA125
:102FE0000220FEF700FA0120FDF7DBFB1048007815
:102FF0001049087030200E4908700F4800683238B8
:103000000D4908600D48006832380C49086008BD59
:10301000865A00085B7631325D5B6D355D5B7435D9
:103020005DCED2CAC7B2BBCAC7B7A2C9D5C1CB0091
:103030003800002039000020500000204C00002003
:1030400038B52348007835280FD0214800787128FA
:103050000BD0204840238022002100900846FDF735
:1030600001FF1B48007800F0FBFEFDF793F80446D3
:1030700000EBD4704010A4EB400040B11648402350
:103080008022002100900846FDF7ECFE07E013487F
:1030900040238022002100900846FDF7E3FE00F067
:1030A0004FFE0FA10220FEF79EF90120FDF779FBEC
:1030B000114800780649087030200F4908706420D4
:1030C0000E4908600E4800680F300D49086038BD91
:1030D0003900002086560008866A000886720008BB
:1030E0005B7631325D5B6D355D5B74355DCBAFC159
:1030F000CBCBAFC1CB000000380000205000002037
:103100004C00002038B525480078352812D02348D7
:10311000007871280ED022484023802200210090A0
:103120000846FDF79FFE1D48007800F099FE01203B
:10313000FDF737FBFDF72EF8044600EBD470401086
:10314000A4EB400040B117484023802200210090AA
:103150000846FDF787FE07E0134840238022002140
:1031600000900846FDF77EFE00F032FE0FA102201F
:10317000FEF739F90120FDF714FB114800780749E3
:10318000087030200E49087064200E4908600E480F
:1031900000680F300C49086038BD0000390000207D
:1031A00086560008866A0008867200085B7631320F
:1031B0005D5B6D355D5B74355DCDEDB0B2C0B20069
:1031C00038000020500000204C00002038B52E4868
:1031D00030238022082100900020FDF743FEFDF7F8
:1031E000BDFF2A482AA102683148FDF70DF8304991
:1031F0000220FEF7F8F80420FDF7D3FA2348006810
:103200003C2815DB2B483023802208210090002029
:10321000FDF728FEFDF7A2FF27A10220FEF7E3F845
:1032200000F0F0FC00F0EEFC0620FDF7BAFA1FE01B
:10323000164800680A281BDC264830238022082113
:1032400000900020FDF70EFEFDF788FF22A102206E
:10325000FEF7C9F8FCF79EFF044600EBD47040105F
:10326000A4EB400010B100F06BFD01E000F0B0FDF8
:103270000420FDF796FA1E4800781E490870302099
:103280001B49087038BD0000865600085000002019
:103290005B7631325D5B6D355D5B74355DB5B1C7B5
:1032A000B0B5C4CCE5C1A6D6B5CEAA256400000051
:1032B00056000020867600085B7631325D5B6D3506
:1032C0005D5B74355DD0A1B4F4BEABC1A6C2FAC2D9
:1032D000FA000000865A00085B7631325D5B6D357E
:1032E0005D5B74355DBAC3C0DBA3ACBAC3C0DB00A1
:1032F000380000203900002008B50D484023802206
:10330000002100900846FDF7ADFD00F083FAFDF7BF
:1033100081FB084800780849087008480068401F89
:103320000649086006480068401D0549086008BD58
:103330008666000838000020390000205000002078
:103340004C00002008B50D48402380220021009049
:103350000846FDF787FD00F055FCFDF75BFB0848CC
:1033600000780849087008480068401F064908604E
:1033700006480068401D0549086008BD867E0008B3
:103380003800002039000020500000204C000020B0
:1033900008B50D4840238022002100900846FDF723
:1033A00061FD00F073FCFDF735FB08480078084923
:1033B000087008480068401F064908600648006811
:1033C000401D0549086008BD867E000838000020C1
:1033D00039000020500000204C00002008B50E48A5
:1033E00040238022002100900846FDF73BFD0BA101
:1033F0000220FDF7F8FF1048FEF794F80F48FEF79B
:10340000CDF80220FDF7CDF90D4800780D49087080
:1034100030200B49087008BD866600085B763132A3
:103420005D5B6D355D5B74355DCED2B8D0BEF5BAEF
:10343000DCD2BBB0E30000000000074300003442D0
:10344000380000203900002008B52F484023802292
:10345000002100900846FDF705FD2C48FEF744F8D2
:103460002BA10220FDF7BFFF0620FDF79AF9324895
:1034700040238022002100900846FDF7F3FC2F48EE
:10348000FEF76EF82EA10220FDF7ADFF0520FDF737
:1034900088F93548FEF728F83348FEF761F83348D5
:1034A00040238022002100900846FDF7DBFC30A17C
:1034B0000220FDF798FF0320FDF773F9124840231F
:1034C0008022002100900846FDF7CCFC2FA10220AD
:1034D000FDF789FF00F096FB00F094FB0520FDF757
:1034E00060F9304800783049087030202D49087064
:1034F0002E480068801E2D4908602D480068401D38
:103500002B49086008BD0000866E000800000743D4
:103510005B7631325D5B6D355D5B74355DCEE4BAF3
:10352000BAC8B7CAB5B6BCCAC7CCF0C3C3A3ACC38C
:10353000A8CFB5C5AEBAA200867E0008000034420E
:103540005B7631325D5B6D355D5B74355DC0ADCCF6
:10355000ECD4D8BDE8CDB7C8CCB2BBD7A1B6E0BFDC
:10356000B4C1CBC1BDD1DB000000B44286760008F7
:103570005B7631325D5B6D355D5B74355DCBFDB87F
:10358000FACED2CBB5DFF7DFF7DFF7005B7631326B
:103590005D5B6D355D5B74355DDFF7C4AAB1C8DF77
:1035A000F700000038000020390000205000002003
:1035B0004C00002008B50B484023802200210090D9
:1035C0000846FDF74FFC08A10220FDF70CFF012083
:1035D000FDF7E7F8094800780949087030200749E5
:1035E000087008BD865600085B7631325D5B6D352C
:1035F0005D5B74355DCED2D4DA0000003800002067
:103600003900002008B52C4840238022002100907A
:103610000846FDF727FC2948FDF766FF28A1022090
:10362000FDF7E1FE0520FDF7BCF82E48402380227F
:10363000002100900846FDF715FC2B48FDF790FF90
:103640002AA10220FDF7CFFE0320FDF7AAF82648A5
:10365000FDF768FF1948FDF7A1FF2B4840238022A2
:10366000002100900846FDF7FDFB28A10220FDF790
:10367000BAFE0220FDF795F82B4840238022002156
:1036800000900846FDF7EEFB28A10220FDF7ABFEF7
:1036900000F0B8FA00F0B6FA0220FDF782F82D48E3
:1036A00000782D49087030202A4908702B4800689E
:1036B000801E2A49086008BD86660008000007438E
:1036C0005B7631325D5B6D355D5B74355DC4E3D532
:1036D000E2B5B9CFD4B5C3CAC7CED2B5C4B2BBCA9E
:1036E000C7C1CB00867A0008000034425B763132D5
:1036F0005D5B6D355D5B74355DBFC9B2BBD2AAB78A
:10370000C5D4DAD0C4C9CF00868200085B763132D6
:103710005D5B6D355D5B74355DB8F8CED2BBADC910
:10372000CFD2BBB1CA000000867E00085B76313282
:103730005D5B6D355D5B74355DB2BBC8BBCED2D50C
:10374000E2D0C4CED1D7D3BFC9D2AAC4D1CADCC1BA
:10375000CB0000003800002039000020500000207D
:1037600010B52848FDF7C0FE2748FDF717FF27488A
:103770000068FDF70AF82448FDF7D4FE2148FDF75C
:10378000EFFE22480068FDF700F82148FDF7ACFE87
:103790001F48FDF703FF1D480068FCF7F6FF1C48B3
:1037A000FDF7C0FE1A48FDF7DBFE18480068FCF77D
:1037B000ECFF1448FDF7B6FE1348FDF7D1FE1348A1
:1037C0000068FCF7E2FF1048FDF78EFE0D48FDF79C
:1037D000E5FE0E480068FCF7D8FF0D48FDF7A2FE95
:1037E0000B48FDF7BDFE09480068FCF7CEFF08480E
:1037F000FDF77AFE0648FDF7D1FE04480068FCF7A5
:10380000C4FF10BD00003442000007432400002024
:103810000000B44210B54648FDF766FE4448FDF787
:1038200081FE44480068FCF7B0FF4148FDF798FE70
:103830003F48FDF7B3FE3F480068FCF7A6FF3E484F
:10384000FDF752FE3C48FDF76DFE3A480068FCF774
:103850009CFF3948FDF784FE3748FDF79FFE354849
:103860000068FCF792FF3248FDF75CFE3048FDF738
:103870003BFE3248FDF774FE3048FDF78FFE962080
:10388000FCF783FF2C48FDF72FFE2B48FDF74AFE7F
:103890002948FDF765FE2848FDF780FE9620FCF7D5
:1038A00074FF2648FDF75CFE2448FDF777FE2148AB
:1038B0000068FCF76AFF2148FDF716FE1F48FDF778
:1038C00031FE1C480068FCF760FF1B48FDF748FE0E
:1038D0001948FDF763FE17480068FCF756FF1648C5
:1038E000FDF702FE1448FDF71DFE12480068FCF7C4
:1038F0004CFF1248FDF716FE1048FDF7F5FD0C4889
:10390000FDF72EFE0A48FDF749FE9620FCF73DFF25
:103910000948FDF7E9FD0848FDF704FE0648FDF7F4
:103920001FFE0548FDF73AFE9620FCF72EFF10BD5E
:1039300000000743240000200000B442000034428D
:1039400010B52848FDF7D0FD2748FDF727FE27488A
:103950000068FCF71AFF2448FDF7E4FD2148FDF755
:10396000FFFD22480068FCF710FF2148FDF7BCFD71
:103970001F48FDF713FE1D480068FCF706FF1C48B2
:10398000FDF7D0FD1A48FDF7EBFD18480068FCF77D
:10399000FCFE1448FDF7C6FD1348FDF7E1FD134892
:1039A0000068FCF7F2FE1048FDF79EFD0D48FDF79C
:1039B000F5FD0E480068FCF7E8FE0D48FDF7B2FD86
:1039C0000B48FDF7CDFD09480068FCF7DEFE08480E
:1039D000FDF78AFD0648FDF7E1FD04480068FCF7A5
:1039E000D4FE10BD00000743000034422400002034
:1039F0000000B44210B500202149086019E02049B8
:103A00000968C1F15A0000F0B7FF0446FDF76CFDEC
:103A10001B49096801F15A0000F0AEFF0446FDF7AA
:103A20009FFD0A20FCF7B1FE15480068401C1449B0
:103A30000860134800681428E1DB00201049086082
:103A400019E00F49096801F15A0000F095FF04469A
:103A5000FDF768FD0A490968C1F15A0000F08CFFC2
:103A60000446FDF79BFD0A20FCF78FFE0448006822
:103A7000401C03490860024800684128E1DB10BD92
:103A80001C00002010B51448FDF74CFD1248FDF74E
:103A900067FD12480068FCF778FE1148FDF724FD29
:103AA0000F48FDF77BFD0D480068FCF76EFE0D48E2
:103AB000FDF738FD0B48FDF753FD08480068FCF79B
:103AC00064FE0848FDF710FD0648FDF767FD034852
:103AD0000068FCF75AFE10BD0000074324000020D8
:103AE000000034420000B44210B51248FDF71AFD40
:103AF0001048FDF735FD10480068FCF746FE0F48FA
:103B0000FDF7F2FC0D48FDF749FD0B480068FCF796
:103B10003CFE0B48FDF706FD0948FDF721FD08486E
:103B2000FDF7E2FC0648FDF739FD03480068FCF7A5
:103B30002CFE10BD0000074324000020000034428A
:103B40000000B44210B51448FDF7CEFC1248FDF752
:103B500025FD12480068FCF718FE1148FDF7E2FC4D
:103B60000F48FDF7FDFC0D480068FCF70EFE0D4800
:103B7000FDF7BAFC0B48FDF711FD08480068FCF79B
:103B800004FE0848FDF7CEFC0648FDF7E9FC0348B3
:103B90000068FCF7FAFD10BD00003442240000204C
:103BA000000007430000B44210B51248FDF79CFC2A
:103BB0001048FDF7F3FC10480068FCF7E6FD0F48DD
:103BC000FDF7B0FC0D48FDF7CBFC0B480068FCF797
:103BD000DCFD0B48FDF788FC0948FDF7DFFC0848D1
:103BE000FDF7A0FC0648FDF7BBFC03480068FCF7A6
:103BF000CCFD10BD0000344224000020000007432B
:103C00000000B44210B51E48FDF78CFC1C48FDF7BF
:103C10006BFC1C48FDF7A4FC1A48FDF7BFFC96207E
:103C2000FCF7B3FD1848FDF75FFC1748FDF77AFC79
:103C30001548FDF795FC1448FDF7B0FC9620FCF7FD
:103C4000A4FD1048FDF76EFC0E48FDF74DFC0C4836
:103C5000FDF786FC0A48FDF7A1FC9620FCF795FDD0
:103C60000948FDF741FC0848FDF75CFC0648FDF7F4
:103C700077FC0548FDF792FC9620FCF786FD10BD09
:103C800000000743000034420000B44210B5284849
:103C9000FDF72AFC2648FDF745FC26480068FCF79E
:103CA00074FD2348FDF75CFC2148FDF777FC2148B3
:103CB0000068FCF76AFD2048FDF716FC1E48FDF77A
:103CC00031FC1C480068FCF760FD1B48FDF748FC10
:103CD0001948FDF763FC17480068FCF756FD1748C4
:103CE000FDF73EFC1548FDF759FC12480068FCF74B
:103CF0004CFD1248FDF7F8FB1048FDF713FC0D488A
:103D00000068FCF742FD0C48FDF72AFC0A48FDF765
:103D100045FC08480068FCF738FD0748FDF7E4FB60
:103D20000548FDF7FFFB03480068FCF72EFD10BDBA
:103D300000000743240000200000B4420000344289
:103D400010B500202149086019E02049096801F1F7
:103D50005A0000F011FE0446FDF7C6FB1B49096836
:103D6000C1F15A0000F008FE0446FDF7F9FB0A20F5
:103D7000FCF70BFD15480068401C14490860134807
:103D800000684B28E1DB00201049086019E00F496A
:103D9000096801F15A0000F0EFFD0446FDF7FEFB53
:103DA0000A490968C1F15A0000F0E6FD0446FDF732
:103DB000B9FB0A20FCF7E9FC04480068401C0349F1
:103DC0000860024800684B28E1DB10BD1C000020A1
:103DD00010B500202149086019E02049096801F167
:103DE0005A0000F0C9FD0446FDF7BAFB1B490968FB
:103DF000C1F15A0000F0C0FD0446FDF775FB0A2032
:103E0000FCF7C3FC15480068401C144908601348BF
:103E100000684B28E1DB00201049086019E00F49D9
:103E2000096801F15A0000F0A7FD0446FDF77AFB8E
:103E30000A490968C1F15A0000F09EFD0446FDF7E9
:103E4000ADFB0A20FCF7A1FC04480068401C0349B4
:103E50000860024800684B28E1DB10BD1C00002010
:103E600070B50446302C00D170BDFDF7F9FA544905
:103E70000870FDF705FB53490870FDF711FB524927
:103E80000870FDF71DFB5149087086E04C4800782A
:103E90005A280CDD4A480078401E494908700846F7
:103EA000007800F081FD0546FDF71EFB0FE0444859
:103EB00000785A280BDA42480078401C40490870C4
:103EC0000846007800F070FD0546FDF70DFB3E4802
:103ED00000785A280CDD3C480078401E3A490870AA
:103EE0000846007800F060FD0546FDF739FB0FE05D
:103EF000354800785A280BDA33480078401C32499C
:103F000008700846007800F04FFD0546FDF728FBD5
:103F10002C4800785A280CDD2A480078401E294990
:103F200008700846007800F03FFD0546FDF7FAFAF4
:103F30000FE0244800785A280BDA22480078401C09
:103F4000204908700846007800F02EFD0546FDF770
:103F5000E9FA1E4800785A280CDD1C480078401EFB
:103F60001A4908700846007800F01EFD0546FDF766
:103F700015FB0FE0154800785A280BDA1348007833
:103F8000401C124908700846007800F00DFD0546F7
:103F9000FDF704FB0A20FCF7F8FB094800785A28D3
:103FA0007FF474AF084800785A28F9D105480078A2
:103FB0005A28F5D1054800785A28F1D100BF53E7B7
:103FC00028000020290000202A0000202B000020CB
:103FD00010B50848FDF788FA0648FDF7A3FA05482A
:103FE000FDF7BEFA0348FDF7D9FA4FF4FA70FCF773
:103FF000CCFB10BD0000B44210B50020434908605E
:1040000019E04249096801F15A0000F0B5FC044684
:10401000FDF788FA3D490968C1F15A0000F0ACFC8F
:104020000446FDF7BBFA0520FCF7AFFB37480068F4
:10403000401C36490860354800684128E1DB002013
:104040003249086019E031490968C1F15A0000F0AD
:1040500093FC0446FDF748FA2C49096801F15A001F
:1040600000F08AFC0446FDF77BFA0520FCF78DFB87
:1040700026480068401C2549086024480068142828
:10408000E1DB4FF47A70FCF780FB00201F490860E9
:1040900010E01E49096801F1460000F06DFC04467D
:1040A000FDF722FA0420FCF770FB18480068401C5A
:1040B00016490860154800683C28EADB4FF47A701E
:1040C000FCF763FB1248FDF70FFA4FF4FA70FCF7A8
:1040D0005CFB1048FDF708FA4FF4FA70FCF755FB4B
:1040E0000B48FDF701FA4FF4FA70FCF74EFB094854
:1040F000FDF7FAF94FF4FA70FCF747FB0648FDF7B5
:10410000F3F90520FCF741FB10BD00001C00002066
:10411000000034430000024300008C4210B51248F6
:10412000FDF71EFA1048FDF7FDF9C820FCF72DFB3E
:104130000E48FDF715FA0D48FDF7F4F9C820FCF715
:1041400024FB0B48FDF7D0F90948FDF727FAC820F2
:10415000FCF71BFB0548FDF7C7F90448FDF71EFAFD
:10416000C820FCF712FB10BD0000A0410000B442C3
:104170000000204308B501210420FDF7B9F82820EC
:104180008DF8030041F63000ADF8000003208DF8F3
:10419000020069460A48FCF771FB10210848FCF749
:1041A0000AFC20210648FCF706FC4FF40061044895
:1041B000FCF701FC4FF480510148FCF7FCFB08BD03
:1041C000000801402DE9C04130B4DFF8A0C23CEA4C
:1041D000111418BF3CEA131400F0EC8081EA0305C7
:1041E0001CEA111444EAD57418BF1CEA131500F038
:1041F000C780A4EB05044FF0004545EAC12145EA1C
:10420000C32341EA505143EA525304F17F74994267
:1042100004F500344FEAC0204FEAC22208BF9042A2
:1042200000F09C804FEA13650FF24016765D4FEA6E
:10423000134506FB05F7C7F1807706FB07F74FEA42
:10424000D737A7FB03687642C8F58038A7FB06CEB0
:1042500038BFA8F1010807FB08E64FF0000EA6FBE7
:10426000028CE6FB03CEDCF1000CCEF1004E38BF31
:10427000AEF1010EA6FB0C584FF000074FF0000501
:10428000E6FB0E87A1FB08C6A0FB07CE16EB0E06C9
:1042900045F10005E1FB076515F1E04E7EBFA4F591
:1042A00080345FEA46066D4116F1800745F100054E
:1042B0004FEA17274FEA066647EA0567A6F1DE468A
:1042C000B6F1805F4FEA15251FD9384624F0010C5E
:1042D00005EBC471BCF1FE6F01EB0C1102D8F0BC10
:1042E000BDE8008124425CBF01F5801E9EEAC47FC8
:1042F00002D4F0BCBDE80081244238D4F0BCA1F166
:10430000C041BDE8004100F0EDB94FEAD22242EAD7
:1043100043524FEAD323A7FB02864FEAD02040EA5C
:10432000415007FB03661EEA0E0F4FEAD12105FB41
:10433000026658BFA6EB0056B6EB00564FEA520E87
:104340004EEAC37E18EB0E0E56EB530EBDD518EB9E
:1043500002085E417F1C55F10005B6E74FF4801559
:104360004FF000074FF000064FF00008ADE7F0BC3B
:104370004FF0000001F1C04101F00041BDE80081B3
:1043800011EA0C1F0CEA131500D00CE013EA0C1F05
:1043900000F025804FF00000F0BC81EA030101F03D
:1043A0000041BDE80081F0BCBDE8004181EA0301A5
:1043B00000F098B9F0BCBDE8004170B500F044F9D8
:1043C000097EFC3E00F007B881EA03014FF00000CF
:1043D00001F00041704781EA030100F083B9F0BCAD
:1043E000BDE800414FF0000021497047FFFDFBF997
:1043F000F7F5F4F2F0EEEDEBE9E8E6E4E3E1E0DE18
:10440000DDDBDAD8D7D5D4D3D1D0CFCDCCCBCAC889
:10441000C7C6C5C4C2C1C0BFBEBDBCBBBAB9B8B7B0
:10442000B6B5B4B3B2B1B0AFAEADACABAAA9A8A8A3
:10443000A7A6A5A4A3A3A2A1A09F9F9E9D9C9C9B71
:104440009A9999989797969595949393929191901C
:104450008F8F8E8E8D8C8C8B8B8A898988888787AD
:104460008685858484838382828181800000FF0722
:104470000000F87F4FEA1153A3F58063D3F11E03C8
:10448000A8BFD3F1200C08DB4FF0004242EAC12262
:1044900052EA505232FA03F0704709420BD4102B03
:1044A000C4BF0020704703F5787CBCF1FF3F05D006
:1044B0004FF0FF3070474FF00000704770B500F0CC
:1044C000C3F800BF4992248000207047F0E7B0FA9B
:1044D00080F310FA03F10AD0C3F11D0303F58063E2
:1044E0004FEA41504FEA035202EBD12170474FF09F
:1044F00000007047DFF848C170B51CEA111E1EBFEE
:104500001CEA13159EEA0C0F95EA0C0F00F06F8061
:1045100081EA030423EA4C134EEAD47E21EA4C11CB
:1045200041F4801143F48013AE44A1FB024CA0FB84
:104530000365AEF17F7E361955EB0C05A1FB034CEC
:104540004CF10003A0FB021C16EB0C06654153F175
:104550000003094218BF46F0010613F4007F0BD197
:104560004FEA03314FEA0530340341EA155140EA7E
:1045700016506FF003020AE04FEAC3214FEAC5204C
:10458000F40241EA555140EA56506FF0020202EB44
:104590002E4201EB025585EACE710AD05FEA440C47
:1045A00018BF24F0004450F1000041F1000120EA5E
:1045B000D47040F2FE7C624500D270BDA84214BFA8
:1045C0004FF080444FF04044002E08BF0024BEF15D
:1045D000806FA8BFA1F1C041BDE8704080F2828029
:1045E0004FF0000001F1C04101F0004170479EEA28
:1045F0000C0F0CEA131518BF95EA0C0F06D04FF0FC
:10460000000081EA030E0EF0004170BD00F01CF8BE
:104610008900013E00F007B800F009B84FEA430CEA
:104620005FEA5C5C08D081EA030100F05BB84FEA06
:10463000410C5FEA5C5CF6D14FF000000149704725
:104640000000FF070000F87F0EF1020E2EF0030EAF
:104650005EF8046B364205D4012A43EB030515F5D9
:10466000001F12D8012841EB010C1CF5001F0CD8CB
:104670000ED14FEAD17C15F5001F0CEB4C0C0CF160
:10468000020C08BF4CEBD37C04E04FF0080C01E0B7
:104690004FEAD37C0CEB4C0526FA05F606F007062C
:1046A000B6F1040C06D20EEB860CBDE870404CF05F
:1046B000010C6047DFE80CF0090B02024FF00041EB
:1046C0004FF00000A1F5002170BD194610460128E9
:1046D00051EB010418BFD4F5001484BF002001F091
:1046E000004170BD0808A0F500114FEA3101704784
:1046F00090EA010F48BF81F0004100F13C82421A6C
:104700003CBF801A89184FEAD0524FF07F4C1CEA08
:10471000410FA2EBD15318BF9CEA026F00F03B801F
:104720004FF0004C4CEA00204CEA012121FA03FC36
:1047300010EB0C0C1ED202F1FF325FEA1C2040EBA2
:10474000C25038BF70471CF07F0F4FEA400C18BFB3
:10475000BCF17F4F38BF7047C3F12003994008BFB9
:1047600020F00100BCF17F4F38BF7047A0F1C0407E
:1047700000F0F5B94FEA3C00000A40EBC25028BFF8
:104780001CF0FF0F4FEA400CE6D018BFBCF17F4F82
:1047900038BF7047EAE79CEA026F05D010EA5C0F69
:1047A00008BF00F00040704710B500F092F900BF5C
:1047B00064FBBE3E4FF47F0C1CEAD0121EBF1CEA05
:1047C000D11392EA0C0F93EA0C0F00F0858090EA67
:1047D000010F48BF42F4807240F4000C41F4000025
:1047E0002CF07F4120F07F4000B58142A2EB030214
:1047F0000FF2081CACEB504EC0F100009EF800E038
:104800004FEA4E0E00FB0EFC38BF49004FEA2C1C4D
:1048100002F5FA020CFB0EF34FEACE1E4FEA112C02
:104820004FEAC1210EEB635E42EB22420EFB0CFC11
:104830004FEA1C5300FB03114FEA112C4FEA0131E0
:104840000EFB0CFC4FEADC4C00FB0C11C14228BFF4
:1048500009184CEB03335DF804EB10EB410143EB1B
:10486000C250B2F57C0F38BF704729D512F0F00F57
:104870001CBF00F1C04000F00040704700818283FF
:104880008485868788898B8C8D8E8F91929395965F
:1048900097999A9C9D9FA0A2A3A5A7A8AAACAEB0E9
:1048A000B2B3B5B7B9BCBEC0C2C5C7C9CCCED1D4EE
:1048B000D7D9DCDFE2E6E9ECF0F3F7FAFE0000001E
:1048C0004FEA400C0CF1807CBCF17E4F28BF704752
:1048D000B0F1C04000F043B990EA010F0CEAD113E7
:1048E00048BF42F48072624538BF634507D213F473
:1048F0007F0F16D080EA010000F00040704710B52D
:1049000000F0E7F8097EFC3E00F005B880EA0100FF
:1049100000F00040704780EA010000F0004000F025
:104920001EB912F47F0F04BF0248704780EA0100ED
:1049300000F015B90000C07FC10DD1F19E0206DB69
:104940004FEA002343F0004323FA02F0704700428D
:1049500007D54FEA4001B1F1FE4F02D24FF00000FF
:10496000704710B500F0B5F84992248000207047D8
:104970006FEA20007047000010F0004148BF40423D
:10498000B0FA80F310FA03F2C3F19D030BD051EAA1
:10499000C35101EB1220530638BF704700F10100EC
:1049A00008BF20F001007047B0FA80F310FA03F25C
:1049B000C3F19D030AD0D90501EB1220530638BF7D
:1049C000704700F1010008BF20F0010070470000AF
:1049D0004FF47F0C1CEAD0121EBF1CEAD11392EADE
:1049E0000C0F93EA0C0F00F0478090EA010F48BFCC
:1049F00042F480724FF0004C4CEA00204CEA012156
:104A000002EB0302A0FB0113A2F50002002918BF6C
:104A100043F001035B0028BF4FEA330342EB22421D
:104A20005FEA132C4CEBC2502EBFBCEB436FB2F5C8
:104A30007C0F70474FEA036CBCF1004F08BF20F0B9
:104A40000100B2F57C0F38BF70470BD582F0FF0232
:104A500012F5803FC8BF704700F1C040D8BF00F0DA
:104A60000040704700F5000C5FEA4C0C48BF7047EF
:104A7000B0F1C04000F073B890EA010F0CEAD11316
:104A800048BF42F48072624538BF634504D280EA71
:104A9000010000F00040704710B500F01AF800BFA8
:104AA0008900013E00F007B800F009B85FEA410C48
:104AB0005FEA1C6C08D080EA010000F050B85FEAA1
:104AC000400C5FEA1C6CF6D14FF00040A0F580006E
:104AD00070470EF1020E2EF0030E5EF8044B2442D6
:104AE00004D44FEA4102B2F17F4F11D84FEA40039C
:104AF000B3F17F4F0CD80ED14FEAD07CB2F17F4F8B
:104B00000CEB4C0C0CF1020C08BF4CEBD17C04E01C
:104B10004FF0080C01E04FEAD17C0CEB4C0324FA77
:104B200003F404F00704B4F1040C06D20EEB840C79
:104B3000BDE810404CF0010C6047DFE80CF00708BE
:104B400002024FF00040A0F5800010BD0846420070
:104B500018BFD2F1807288BF00F0004010BDFF2165
:104B600041EAD050C005704790EA010F48BF81F07C
:104B700000413FF5C4AD421A04D882F00042A0EBD8
:104B8000020011444FEAD0524FF07F4C1CEA410F13
:104B9000A2EBD15318BF9CEA026F4AD04FF0004CF1
:104BA0004CEA00204CEA012121FA03FCB0EB0C0C8A
:104BB0000FD412F0FE0F36D05FEA4C001DD5001264
:104BC00040EBC25038BF70471CF03F0F18BF704712
:104BD0000BE0A2F101025FEA1C2040EBC25038BF9B
:104BE00070471CF07F0F18BF7047C3F12003994036
:104BF00014BF401E20F00100704780084FEA1223C6
:104C000008BF7047B0FA80FCA2EB0C02CCF1280C74
:104C100060FA0CF093EA122F04BF00EBC250704709
:104C20004FEAC3707047130A5FEADC1008BF704791
:104C3000F6E79CEA026F04D010EA5C0F08BF002080
:104C4000704710B5FFF745FF40DFF63E81F00040AA
:104C5000704700000000000000000000000000009D
:104C60000000000000F800000000000000333000E9
:104C7000000000160E00160E0000000000000000EC
:104C8000000040C07840C0784000043F04043F0466
:104C90000400007088FC08300000001820FF211E6E
:104CA0000000F008F000E018000000211C031E21A5
:104CB0001E0000F00888700000001E212324192720
:104CC0002110000000160E0000000000000000008F
:104CD0000000000000E01804020000000007182097
:104CE000400000020418E000000000402018070007
:104CF0000000404080F0804040000202010F0102AD
:104D00000200000000F0000000000101011F01018D
:104D10000100000000000000000000B07000000072
:104D2000000000000000000000000001010101017E
:104D30000101000000000000000000303000000011
:104D400000000000000080601804006018060100E8
:104D5000000000E010080810E000000F10202010F4
:104D60000F00001010F8000000000020203F20205D
:104D700000000070080808887000003028242221F4
:104D800030000030088888483000001820202011AA
:104D90000E000000C02010F8000000070424243F8B
:104DA000240000F808888808080000192120201134
:104DB0000E0000E0108888180000000F112020115C
:104DC0000E0000380808C83808000000003F000046
:104DD00000000070880808887000001C2221212231
:104DE0001C0000E010080810E00000003122221131
:104DF0000F00000000C0C0000000000000303000C4
:104E00000000000000C0C0000000000080B0700082
:104E1000000000008040201008000001020408107B
:104E2000200040404040404040000404040404048A
:104E30000400000810204080000000201008040238
:104E40000100007048080808F0000000003036013A
:104E50000000C030C828E810E000071827242314F9
:104E60000B000000C038E0000000203C23020227B5
:104E7000382008F8888888700000203F2020201102
:104E80000E00C0300808080838000718202020103D
:104E9000080008F808080810E000203F2020201033
:104EA0000F0008F88888E8081000203F2020232001
:104EB000180008F88888E8081000203F2000030048
:104EC0000000C03008080838000007182020221E03
:104ED000020008F808000008F808203F210101211D
:104EE0003F20000808F8080800000020203F20208C
:104EF000000000000808F8080800C08080807F00DB
:104F0000000008F888C028180800203F2001263833
:104F1000200008F8080000000000203F202020208A
:104F2000300008F8F800F8F80800203F003F003F84
:104F3000200008F830C00008F808203F20000718BB
:104F40003F00E01008080810E0000F10202020109B
:104F50000F0008F808080808F000203F21010101AF
:104F60000000E01008080810E0000F182424385052
:104F70004F0008F8888888887000203F2000030CC4
:104F800030200070880808083800003820212122CD
:104F90001C00180808F8080818000000203F20002E
:104FA000000008F808000008F808001F2020202052
:104FB0001F000878880000C83808000007380E0174
:104FC0000000F80800F80008F800033C0700073C60
:104FD0000300081868808068180820302C03032C10
:104FE00030200838C800C83808000000203F2000E2
:104FF000000010080808C8380800203826212020A2
:105000001800000000FE020202000000007F404085
:105010004000000C30C00000000000000001063815
:10502000C00000020202FE000000004040407F007D
:1050300000000020100804081020000000000000FC
:105040000000000000000000000080808080808060
:105050008080000204080000000000000000000042
:10506000000000008080808000000019242222229D
:105070003F2008F8008080000000003F1120201130
:105080000E000000008080800000000E1120202013
:105090001100000000808088F800000E1120201010
:1050A0003F200000808080800000001F22222222FA
:1050B0001300008080F0888888180020203F20207E
:1050C00000000000808080808000006B94949493A6
:1050D000600008F8008080800000203F2100002050
:1050E0003F2000809898000000000020203F2020F2
:1050F0000000000000809898000000C08080807F41
:10510000000008F8000080808000203F24022D303D
:105110002000000808F8000000000020203F2020A8
:1051200000008080808080808000203F20003F2021
:10513000003F008080008080000000203F21002090
:105140003F200000808080800000001F2020202061
:105150001F00808000808000000080FFA1202011BF
:105160000E000000008080808000000E112020A032
:10517000FF80808080008080800020203F212000F0
:1051800001000000808080808000003324242424DB
:105190001900008080E0808000000000001F2020B7
:1051A00000008080000000808000001F2020201070
:1051B0003F20808080000080808000010E30080643
:1051C000010080800080008080800F300C030C3054
:1051D0000F0000808000808080000020312E0E3182
:1051E0002000808080000080808080818E70180682
:1051F000010000808080808080000021302C2221EE
:10520000300000000000807C020200000000003F2F
:10521000404000000000FF00000000000000FF0010
:1052200000000002027C800000000040403F0000BF
:10523000000000804040800000800000000000016D
:1052400001000000000000000000002F000000002E
:105250000700070000147F147F1400242A7F2A12FD
:1052600000231308646200364955225000000007ED
:10527000000000001C224100000041221C0000141C
:10528000083E08140008083E0808000000A060005E
:1052900000080808080800006060000000201008EE
:1052A0000402003E5149453E0000427F400000425A
:1052B00061514946002141454B31001814127F10BD
:1052C000002745454539003C4A49493000017109EC
:1052D000050300364949493600064949291E0000A0
:1052E0003636000000005636000000081422410047
:1052F0000014141414140000412214080002015177
:105300000906003E4955592E007C1211127C007F7F
:1053100049494936003E41414122007F4141221C1A
:10532000007F49494941007F09090901003E41497F
:10533000497A007F0808087F0000417F4100002073
:1053400040413F01007F08142241007F404040401F
:10535000007F020C027F007F0408107F003E414165
:10536000413E007F09090906003E4151215E007F50
:10537000091929460046494949310001017F0101C7
:10538000003F4040403F001F2040201F003F40386A
:10539000403F0063140814630007087008070061A9
:1053A0005149454300007F4141000002040810209C
:1053B000000041417F00000402010204004040401F
:1053C0004040000001020400002054545478007F43
:1053D0004844443800384444442000384444487F1A
:1053E00000385454541800087E0901020018A4A47F
:1053F000A47C007F080404780000447D4000004045
:1054000080847D00007F102844000000417F400020
:10541000007C04180478007C0804047800384444B4
:10542000443800FC242424180018242418FC007C90
:105430000804040800485454542000043F44402009
:10544000003C4040207C001C2040201C003C4030A0
:10545000403C004428102844001CA0A0A07C00442C
:1054600064544C440000087F41000000007F0000AD
:105470000000417F0800000804081008A3AC0000E9
:10548000000000000000000000000000000000001C
:10549000005838000000000000000000000000A1DB
:1054A000A300000000000000000000000000000059
:1054B0000000000018242418000000000000000074
:1054C0000000C4E300008060F8074020180F08C8FF
:1054D0000808281800010000FF00100C0340807F1E
:1054E0000001061800BAC3001010F01F10F0008071
:1054F0008282E2928A8680004022150816610000AE
:1055000040807F0000000000CAC000202020FE2054
:1055100020FF202020FF20202020000000007F40CE
:105520004047444444474040400000BDE70000007D
:1055300000FE929292FE929292FE000000000808F5
:105540000484621E010001FE020404080800A3A1F5
:1055500000000000FE00000000000000000000004D
:105560000000000033000000000000000000000008
:1055700000BFAA0080828282FE8282828282FE82B4
:1055800082828000008040300F0000000000FF0099
:1055900000000000D0C4000000800000E0020418F9
:1055A00000000040800000100C0300003F4040401D
:1055B00040407800010E00D6B500008060F8070476
:1055C000E4A4A4BFA4A4E4040000010000FF404040
:1055D0007F4A4A4A4A4A7F4040003A0000000000A1
:1055E0000000000000000000000000000000003685
:1055F00036000000000000000000000000CCE500C4
:10560000008060F807101010D0FFD01010100000BC
:10561000010000FF1008040B08FF080B040810002D
:10562000C1A600001010101010FF1010101010F084
:105630000000000080402018060100204080403F0C
:10564000000000000000FF0101013109090909897A
:105650007101010101FFFF80808080808096818040
:105660008080808080FFFF01818181FD8991A1C1BF
:10567000FD81818101FFFF808080809F88848281FD
:105680009F80808080FF000000000000000000007C
:10569000000000000000000000000000000000000A
:1056A00000000000000000000000000000000000FA
:1056B00000000000000000000000000000000000EA
:1056C00000000000000000000000000000000000DA
:1056D00000000000000000000000000000000000CA
:1056E00000000000000000000000000000000000BA
:1056F00000000000000000000000000000000000AA
:105700000000000000000000000000000000000099
:105710000000000000000000000000000000000089
:1057200000000000808080000000000000000000F9
:105730000000000000000000000000000000000069
:105740000000000000000000000000000000000059
:105750000000000000000000000000000000000049
:1057600000000000000080808000000000000000B9
:105770000000000000000000000000000000000029
:105780000000000000000000000000000000000019
:10579000000000000000000000000000000000F019
:1057A000F8FEFFFFFFFFFFFFFFFEF8F00000000024
:1057B00000000000000000000000000000000000E9
:1057C00000000000000000000000000000000000D9
:1057D00000000000000000000000000000000000C9
:1057E00000F0F8FEFFFFFFFFFFFFFFFEF8F00000F4
:1057F00000000000000000000000000000000000A9
:105800000000000000000000000000000000000098
:10581000000000000000000000000000000000FF89
:10582000FFFFFFFFFFFFFFFFFFFFFFFF0000000084
:105830000000000000000000000000000000000068
:105840000000000000000000000000000000000058
:105850000000000000000000000000000000000048
:1058600000FFFFFFFFFFFFFFFFFFFFFFFFFF000045
:105870000000000000000000000000000000000028
:105880000000000000000000000000000000000018
:10589000000000000000000000000000000000FF09
:1058A000FFFFFFFFFFFFFFFFFFFFFFFF0000000004
:1058B00000000000000000000000000000000000E8
:1058C00000000000000000000000000000000000D8
:1058D00000000000000000000000000000000000C8
:1058E00000FFFFFFFFFFFFFFFFFFFFFFFFFF0000C5
:1058F00000000000000000000000000000000000A8
:105900000000000000000000000000000000000097
:105910000000000000000000000000000000001F68
:105920003FFFFFFFFFFFFFFFFFFF3F1F00000000E3
:105930000000000000000000000000000000000067
:105940000000000000000000000000000000000057
:105950000000000000000000000000000000000047
:10596000001F3FFFFFFFFFFFFFFFFFFF3F1F000084
:105970000000000000000000000000000000000027
:105980000000000000000000000000000000000017
:105990000000000000000000000000000000000007
:1059A00000000101030303010100000000000000EA
:1059B00000000000000000000000000000000000E7
:1059C00000000000000000000000000000000000D7
:1059D00000000000000000000000000000000000C7
:1059E00000000000010103030301010000000000AA
:1059F00000000000000000000000000000000000A7
:105A00000000000000000000000000000000000096
:105A10000000000000000000000000000000000086
:105A20000000000000000000000000000000000076
:105A30000000000000000000000000000000000066
:105A40000000000000000000000000000000000056
:105A50000000000000000000000000000000000046
:105A60000000000000000000000000000000000036
:105A70000000000000000000000000000000000026
:105A80000000000000000000000000000000000016
:105A90000000000000000000000000000000000006
:105AA00000000000000000000000000000000000F6
:105AB00000000000000000000000000000000000E6
:105AC00000000000000000000000000000000000D6
:105AD00000000000000000000000000000000000C6
