:100BFC003C473ED6F7C8CBA3ACC4E3BAC3003C47D2
:100C0C003ED6F7C8CBA3ACCED2CFC8CDCBCFC2C1CA
:100C1C00CB00550035007100660062006C0072005C
:100C2C00700032007300790031006F0077006A00A9
:100C3C0064004E000042005900580057004B00540D
:030C4C00005A004B
:06000E00015D00015C0031
:100B1D00E4F5467592FFF591C294C295C296C297BF
:100B2D00120ED8120DF4120D78120E49E4785DF6FE
:100B3D007BFF7A0B79FC120E70C3E55B94D0E55AFE
:100B4D00648094874012E4F55AF55BF55CD2C27B64
:100B5D00FF7A0C790A120E70785DE61460DB24F1D1
:100B6D00601824DF60D324317020785D7601120C7B
:100B7D004FEF70C5785D763180BF12001C785FEF46
:100B8D00F6120440E4785DF680AFE4785DF680A956
:100ED800B2C2120F02B2C2120F02B2C2120F02B293
:0C0EE800C2120F02B2C2120F02B2C222EC
:100DF4007580FFE4F59075A0FF75B0FF75C0FF53D3
:100E04008E7F438901F58A758C28C28DD28CD2A934
:0C0E1400C2C3D289D2A8D2AF75C13D2262
:0A0F0F0000007F057E49DEFEDFFCD6
:010F190022B5
:080E95008F518E508D4F8C4EE1
:100E9D00E4F552F553F554F555784E74FF1206C925
:0B0EAD00EC4D4E4F6005120F0F80EE61
:010EB8002217
:0C0F02007F117ED07D1BDDFEDEFCDFFADF
:010F0E0022C0
:03000300020DB932
:100DB900C0E0C0F0C083C082C0D075D000C000C000
:100DC90001C002C003C004C005C006C007120969FA
:100DD900D007D006D005D004D003D002D001D0006E
:0B0DE900D0D0D082D083D0F0D0E03218
:100440008F47E5477013755C01F55AF55B7BFF7AC2
:100450000C791E120E70C2C222E55C6401600302B8
:100460000669E5471206E704FE01050C02051A04B9
:10047000052814053615054416055217056018059C
:100480007019057E1A058C1B059A1C05A81D05B65A
:100490001E05C41F05D22005F321065B220600239A
:1004A000060D24061A2506272606342706412806A7
:1004B0004E29065B2A065B2B065B2C065B2D065B32
:1004C0002E065B2F065B30065B31065B32065B3324
:1004D000065B34065B35065B36065B37065B380623
:1004E0005B39065B3A065B3B065B3C065B3D065BA5
:1004F0003E065B3F065B40065B4100000669E4F593
:100500005AF55B7BFF7A0C7920020666E4F55AF512
:100510005B7BFF7A0C7922020666E4F55AF55B7B79
:10052000FF7A0C7924020666E4F55AF55B7BFF7AC4
:100530000C7926020666E4F55AF55B7BFF7A0C79A6
:1005400028020666E4F55AF55B7BFF7A0C792A02ED
:100550000666E4F55AF55B7BFF7A0C792C02066699
:10056000E4F55AF55BC2947BFF7A0C792E0206669D
:10057000E4F55AF55B7BFF7A0C7930020666E4F508
:100580005AF55B7BFF7A0C7932020666E4F55AF580
:100590005B7BFF7A0C7934020666E4F55AF55B7BE7
:1005A000FF7A0C7936020666E4F55AF55B7BFF7A32
:1005B0000C7938020666E4F55AF55B7BFF7A0C7914
:1005C0003A020666E4F55AF55B7BFF7A0C793C0249
:1005D0000666E4F55AF55B120C9E7C007D0212065D
:1005E00083ED4C7BFF60067A0C792C80797A0C794C
:1005F0002E8073E4F55AF55B7BFF7A0C793E8066BA
:10060000E4F55AF55B7BFF7A0C79418059E4F55AA1
:10061000F55B7BFF7A0C7943804CE4F55AF55B7B04
:10062000FF7A0C7945803FE4F55AF55B7BFF7A0C45
:1006300079478032E4F55AF55B7BFF7A0C79498083
:1006400025E4F55AF55B7BFF7A0C794B8018E4F5CD
:100650005AF55B7BFF7A0C794D800BE4F55AF55B1C
:0A0660007BFF7A0C7940120E702225
:03000B00020EB929
:100EB900C0E0C0D0758A00758C2875C13DE55CB469
:0F0EC9000108055BE55B7002055AD0D0D0E0321E
:100026007869616F206461690000000000000000CB
:10003600000000006C69207A68656E6700000000A9
:1000460000000000000000007169206C69000000DB
:10005600000000000000000000000000716920732D
:1000660068656E000000000000000000000000004F
:100076007A68616E207169206C6169000000000079
:10008600000000007169616E206A696E0000000060
:1000960000000000000000007A6F750000000000FC
:1000A600000000000000000000000000686F7520DE
:1000B60074756900000000000000000000000000E8
:1000C6007A756F207A6875616E0000000000000086
:1000D60000000000796F75207A6875616E00000077
:1000E60000000000000000007061207869610000D7
:1000F600000000000000000000000000776F20787C
:10010600696100000000000000000000000000001F
:100116007A756F2078696100000000000000000019
:10012600000000006361206C69616E000000000041
:1001360000000000000000007A756F2078696120D9
:100146006361206C69616E00000000007368656E73
:10015600206C616E2079616F0000000000000000D5
:1001660074616920746F75000000000000000000D3
:10017600000000006461207A68616F2068750000E5
:1001860000000000000000006461206765207A68B6
:10019600616F206875000000000000006861206C37
:1001A6006F75000000000000000000000000000065
:1001B6006861690000000000000000000000000007
:1001C6000000000079616F20626169000000000094
:1001D60000000000000000007461692073686F75FC
:1001E6000000000000000000000000007469616F5C
:1001F60020777500000000000000000000000000ED
:1002060073687569206A69616F000000000000006C
:10021600000000006E616E2073686F7500000000BC
:1002260000000000000000006269616F2079616EC5
:10023600206275206B61692078696E007775206889
:10024600616E0000000000000000000000000000D9
:100256006D656E20646F75206D656920796F750018
:10026600000000007A6120687569207368690000E3
:100276000000000000000000776569207368656E65
:10028600206D650000000000000000006E69206B14
:1002960061692078696E206D610000000000000031
:1002A600636861206B616E206B61692078696E20DE
:1002B6007A6869006C6569206275206C6569000062
:1002C6000000000000000000636861206B616E2082
:1002D6007469206C69207A6869000000636861208F
:1002E6006B616E207A6869207368750000000000F3
:1002F60000000000000000000000000000000000F8
:1003060000000000000000000000000000000000E7
:1003160000000000000000000000000000000000D7
:1003260000000000000000000000000000000000C7
:1003360000000000000000000000000000000000B7
:1003460000000000000000000000000000000000A7
:100356000000000000000000000000000000000097
:100366000000000000000000000000000000000087
:100376000000000000000000000000000000000077
:100386000000000000000000000000000000000067
:100396000000000000000000000000000000000057
:1003A6000000000000000000000000000000000047
:1003B6000000000000000000000000000000000037
:1003C6000000000000000000000000000000000027
:1003D6000000000000000000000000000000000017
:1003E6000000000000000000000000000000000007
:1003F60000000000000000000000000000000000F7
:1004060000000000000000000001020202040414C3
:10041600151617181919191A1B1C1C1C1C1D1E1F32
:100426002021212324252627272828292A2B2C2D5D
:0A0436002E2F303132330000000099
:100D7800D2B57F057E007D007C00120E95C2B57F3E
:100D8800057E007D007C00120E95D2B57F057E00A1
:100D98007D007C00120E95C2A17F057E007D007C3F
:100DA80000120E95D2A17F057E007D007C00020E08
:010DB80095A5
:1008CD007F06120F257D357F17120F1A7F0A7E00C6
:1008DD007D007C00120E957F06120F257D037F890A
:1008ED00120F1A7F057E007D007C00120E957D4350
:1008FD007FCF120F1A7F057E007D007C00120E95B2
:10090D007D027FCB120F1A7D0A7F11120F1AE4FDA3
:10091D007F1E120F1A7D3F7F19120F1A7D487F1B04
:10092D00120F1A7D1F7F1D120F1A7F0A7E007D0088
:10093D007C00120E957D047FCD120F1A7F057E006F
:10094D007D007C00120E95E4FD7FB9120F1A7D4FCC
:0C095D007FCF120F1A7DFF7F6F020F1A70
:100B9D001208CDE4FD7FBD120F1A7D487F17120F8D
:100BAD001A7F0A7E007D007C00120E957D807F3CB1
:100BBD00120F1A7D077F3E120F1A7DFF7F38120F1D
:100BCD001A7D077F3A120F1AE4FD7F40120F1A7D2E
:100BDD00087F42120F1AE4FD7F44120F1A7D087F21
:0F0BED0046120F1A7F017E007D007C00020E95DC
:10096900E4F545C2A87F2B120F25785EA607E4FDA2
:100979007F29120F1AE4FD7F02120F1A785EE63002
:10098900E42D7FB2120F25EF642170237FBF120F70
:1009990025BF351B7FBA120F258F45E545D3940036
:1009A900400DE545D394045006785D7610800478AF
:1009B9005D7611E4FD7F2B120F1AE4FD7F1C120FE7
:1009C9001AE4FD7F29120F1AE4FD7F02120F1AE4BF
:1009D900FD7F2B120F1AE4FD7FBA120F1AE4FD7F77
:1009E900BC120F1A7D017F08120F1AE4FD7F08124D
:0409F9000F1AD2A857
:0109FD0022D7
:100C4F00E4F547F548F5471200067F327E007D0038
:100C5F007C00120E95120830EF700280117F0A7E11
:100C6F00007D007C00120E951209FEEF7010120D20
:100C7F00787F327E007D007C00120E9580057548CE
:0E0C8F000180090547E547C3940540BBAF4807
:010C9D002234
:100E2000E4F54DF54C7FB2120F25BF2105754D013C
:100E300080147F0A7E007D007C00120E95054CE533
:080E40004CC3940A40DFAF4DE2
:010E48002287
:03000600020B9D4D
:1009FE00C2A87D437F35120F1A7D097F1C120F1A74
:100A0E007D207FBD120F1A7D017F08120F1A7F0104
:100A1E007E007D007C00120E95E4FD7F08120F1AF9
:100A2E007F017E007D007C00120E95120E20EF706D
:100A3E0002FF227D0B7F1C120F1A7DFF7FB2120F59
:100A4E001A7F017E007D007C00120E957D067F3799
:100A5E00120F1A7F017E007D007C00120E957D061E
:100A6E007F37120F1A7F057E007D007C00120E95D7
:100A7E007D107F29120F1AE4FD7FBD120F1AD2A826
:030A8E007F0122C3
:10083000754A01E4F549120E20EF7005F54A0208E9
:10084000CAE54990040E93FD7FC1120F1AE4FD7FA3
:10085000C3120F1A7D047F08120F1A7F017E007DDC
:10086000007C00120E95E4FD7F08120F1A7F017EB6
:10087000007D007C00120E95E4F54B75F014E549FF
:10088000A42426F582E5F03400F583E582254BF5B6
:1008900082E43583F583E493FD600E7F05120F1A21
:1008A000054BE54BC3941440D2AD4B7FB9120F1AE0
:1008B0007DFF7FB2120F1A7D047F37120F1A054990
:0C08C000E549C394325003020836AF4AE9
:0108CC002209
:06001C007FC5120F252232
:0B0F1A00908100EFF0908000EDF022CD
:0B0F2500908100EFF0908000E0FF22C0
:07001400021125800110001C
:100E4900759850438920AE11AF12AB07AA06E4F991
:100E5900F8FF7EE1FDFC120D341206B98F8B8F8DE0
:070E6900D28ED2ACD2AF2201
:0E0EF400C2ACC2998F993099FDC299D2AC223E
:100E70008B488A49894AAB48AA49A94A12066A603E
:100E800013054AE54A7002054914F912066AFF1271
:050E90000EF480E222D7
:03002300020CEBE1
:100CEB00C0E0C0D075D00830983AC2987413251064
:100CFB00F8A6990510E510C394314003751000E573
:100D0B0010C39403401E74132510F8E6B4F8157441
:100D1B00122510F8E6B4F80C74112510F8E6B4F8A7
:090D2B000375C760D0D0D0E0329E
:03000000020A9160
:0C0A9100787FE4F6D8FD75815F020AD87A
:10066A00BB010689828A83E0225002E722BBFE028E
:09067A00E32289828A83E49322C1
:10068300C2D5EC30E709B2D5E4C39DFDE49CFCEE92
:1006930030E715B2D5E4C39FFFE49EFE12070DC3F6
:1006A300E49DFDE49CFC800312070D30D507C3E4F1
:0606B3009FFFE49EFE2201
:100D3400C2D5E830E70FB2D5E4C39BFBE49AFAE4EA
:100D440099F9E498F8EC30E717B2D5120D6A120756
:100D54009EE4C39BFBE49AFAE499F9E498F88003CF
:100D640012079E30D50DE4C39FFFE49EFEE49DFD73
:040D7400E49CFC22DD
:0E06B900C3E49FFFE49EFEE49DFDE49CFC2252
:1006C7007401FF3395E0FEFDFC080808E6CF2FF61E
:1006D70018E6CE3EF618E6CD3DF618E6CC3CF622F7
:1006E700D083D082F8E4937012740193700DA3A3A2
:1006F70093F8740193F5828883E4737402936860B6
:06070700EFA3A3A380DFB5
:100C9E00AC56AD57AE58AF597810EC4D4E4F700460
:100CAE007CA57DA5C3EC13FCED13FDEE13FEEF1337
:100CBE00FF5010EC64CCFCED644CFDEE644EFEEF88
:100CCE0064CEFFD8DF8C568D578E588F59EE547FD9
:0D0CDE00FE228E568F5774A5F558F5592249
:100A9D00020B1DE493A3F8E493A34003F68001F247
:100AAD0008DFF48029E493A3F85407240CC8C3335A
:100ABD00C4540F4420C8834004F456800146F6DF29
:100ACD00E4800B010204081020408090000EE47EAB
:100ADD00019360BCA3FF543F30E509541FFEE4931E
:100AED00A360010ECF54C025E060A840B8E493A3E5
:100AFD00FAE493A3F8E493A3C8C582C8CAC583CA10
:100B0D00F0A3C8C582C8CAC583CADFE9DEE780BEC7
:01001B0000E4
:10070D00BC000BBE0029EF8DF084FFADF022E4CCD0
:10071D00F875F008EF2FFFEE33FEEC33FCEE9DEC99
:10072D00984005FCEE9DFE0FD5F0E9E4CEFD22EDDF
:10073D00F8F5F0EE8420D21CFEADF075F008EF2F29
:10074D00FFED33FD4007985006D5F0F222C398FD1A
:05075D000FD5F0EA22B7
:1007620075F008758200EF2FFFEE33FECD33CDCC4E
:1007720033CCC58233C5829BED9AEC99E5829840D1
:100782000CF582EE9BFEED9AFDEC99FC0FD5F0D6AE
:10079200E4CEFBE4CDFAE4CCF9A88222B800C1B9D8
:1007A2000059BA002DEC8BF084CFCECDFCE5F0CB16
:1007B200F97818EF2FFFEE33FEED33FDEC33FCEB4F
:1007C20033FB10D703994004EB99FB0FD8E5E4F90A
:1007D200FA227818EF2FFFEE33FEED33FDEC33FCF7
:1007E200C933C910D7059BE99A4007EC9BFCE99AEB
:1007F200F90FD8E0E4C9FAE4CCFB2275F010EF2F30
:10080200FFEE33FEED33FDCC33CCC833C810D7072F
:100812009BEC9AE899400AED9BFDEC9AFCE899F86A
:0E0822000FD5F0DAE4CDFBE4CCFAE4C8F922FD
:00000001FF
